{
  "contractName": "Marketplace",
  "abi": [
    {
      "constant": true,
      "inputs": [
        {
          "name": "",
          "type": "address"
        }
      ],
      "name": "storeOwners",
      "outputs": [
        {
          "name": "",
          "type": "bool"
        }
      ],
      "payable": false,
      "stateMutability": "view",
      "type": "function"
    },
    {
      "constant": true,
      "inputs": [
        {
          "name": "",
          "type": "address"
        }
      ],
      "name": "balances",
      "outputs": [
        {
          "name": "",
          "type": "uint256"
        }
      ],
      "payable": false,
      "stateMutability": "view",
      "type": "function"
    },
    {
      "constant": true,
      "inputs": [
        {
          "name": "",
          "type": "address"
        }
      ],
      "name": "admins",
      "outputs": [
        {
          "name": "",
          "type": "bool"
        }
      ],
      "payable": false,
      "stateMutability": "view",
      "type": "function"
    },
    {
      "constant": true,
      "inputs": [],
      "name": "owner",
      "outputs": [
        {
          "name": "",
          "type": "address"
        }
      ],
      "payable": false,
      "stateMutability": "view",
      "type": "function"
    },
    {
      "constant": true,
      "inputs": [
        {
          "name": "",
          "type": "uint256"
        }
      ],
      "name": "featuredStoreOwners",
      "outputs": [
        {
          "name": "",
          "type": "address"
        }
      ],
      "payable": false,
      "stateMutability": "view",
      "type": "function"
    },
    {
      "inputs": [],
      "payable": false,
      "stateMutability": "nonpayable",
      "type": "constructor"
    },
    {
      "anonymous": false,
      "inputs": [
        {
          "indexed": true,
          "name": "admin",
          "type": "address"
        }
      ],
      "name": "AddedAdmin",
      "type": "event"
    },
    {
      "anonymous": false,
      "inputs": [
        {
          "indexed": true,
          "name": "admin",
          "type": "address"
        }
      ],
      "name": "RemovedAdmin",
      "type": "event"
    },
    {
      "anonymous": false,
      "inputs": [
        {
          "indexed": true,
          "name": "storeOwner",
          "type": "address"
        },
        {
          "indexed": true,
          "name": "admin",
          "type": "address"
        }
      ],
      "name": "AddedStoreOwner",
      "type": "event"
    },
    {
      "anonymous": false,
      "inputs": [
        {
          "indexed": true,
          "name": "storeOwner",
          "type": "address"
        },
        {
          "indexed": true,
          "name": "admin",
          "type": "address"
        }
      ],
      "name": "RemovedStoreOwner",
      "type": "event"
    },
    {
      "anonymous": false,
      "inputs": [
        {
          "indexed": true,
          "name": "storeOwner",
          "type": "address"
        },
        {
          "indexed": true,
          "name": "storeID",
          "type": "bytes32"
        }
      ],
      "name": "AddedStore",
      "type": "event"
    },
    {
      "anonymous": false,
      "inputs": [
        {
          "indexed": true,
          "name": "storeOwner",
          "type": "address"
        },
        {
          "indexed": true,
          "name": "storeID",
          "type": "bytes32"
        }
      ],
      "name": "RemovedStore",
      "type": "event"
    },
    {
      "anonymous": false,
      "inputs": [
        {
          "indexed": true,
          "name": "storeOwner",
          "type": "address"
        },
        {
          "indexed": true,
          "name": "storeID",
          "type": "bytes32"
        },
        {
          "indexed": true,
          "name": "itemID",
          "type": "bytes32"
        }
      ],
      "name": "AddedItem",
      "type": "event"
    },
    {
      "anonymous": false,
      "inputs": [
        {
          "indexed": true,
          "name": "storeOwner",
          "type": "address"
        },
        {
          "indexed": true,
          "name": "storeID",
          "type": "bytes32"
        },
        {
          "indexed": true,
          "name": "itemID",
          "type": "bytes32"
        }
      ],
      "name": "RemovedItem",
      "type": "event"
    },
    {
      "anonymous": false,
      "inputs": [
        {
          "indexed": true,
          "name": "storeOwner",
          "type": "address"
        },
        {
          "indexed": true,
          "name": "storeID",
          "type": "bytes32"
        },
        {
          "indexed": false,
          "name": "itemID",
          "type": "bytes32"
        },
        {
          "indexed": true,
          "name": "customer",
          "type": "address"
        },
        {
          "indexed": false,
          "name": "price",
          "type": "uint256"
        }
      ],
      "name": "Purchase",
      "type": "event"
    },
    {
      "anonymous": false,
      "inputs": [
        {
          "indexed": true,
          "name": "storeOwner",
          "type": "address"
        },
        {
          "indexed": false,
          "name": "amount",
          "type": "uint256"
        }
      ],
      "name": "Withdrawal",
      "type": "event"
    },
    {
      "anonymous": false,
      "inputs": [
        {
          "indexed": true,
          "name": "storeOwner",
          "type": "address"
        },
        {
          "indexed": true,
          "name": "storeID",
          "type": "bytes32"
        },
        {
          "indexed": true,
          "name": "itemID",
          "type": "bytes32"
        },
        {
          "indexed": false,
          "name": "amount",
          "type": "uint256"
        }
      ],
      "name": "Restocking",
      "type": "event"
    },
    {
      "anonymous": false,
      "inputs": [
        {
          "indexed": true,
          "name": "storeOwner",
          "type": "address"
        },
        {
          "indexed": true,
          "name": "storeID",
          "type": "bytes32"
        },
        {
          "indexed": true,
          "name": "itemID",
          "type": "bytes32"
        },
        {
          "indexed": false,
          "name": "newPrice",
          "type": "uint256"
        }
      ],
      "name": "PriceChange",
      "type": "event"
    },
    {
      "constant": false,
      "inputs": [
        {
          "name": "_newAdmin",
          "type": "address"
        }
      ],
      "name": "addAdmin",
      "outputs": [],
      "payable": false,
      "stateMutability": "nonpayable",
      "type": "function"
    },
    {
      "constant": false,
      "inputs": [
        {
          "name": "_admin",
          "type": "address"
        }
      ],
      "name": "removeAdmin",
      "outputs": [],
      "payable": false,
      "stateMutability": "nonpayable",
      "type": "function"
    },
    {
      "constant": false,
      "inputs": [
        {
          "name": "_newStoreOwner",
          "type": "address"
        }
      ],
      "name": "addStoreOwner",
      "outputs": [],
      "payable": false,
      "stateMutability": "nonpayable",
      "type": "function"
    },
    {
      "constant": false,
      "inputs": [
        {
          "name": "_storeOwner",
          "type": "address"
        }
      ],
      "name": "removeStoreOwner",
      "outputs": [],
      "payable": false,
      "stateMutability": "nonpayable",
      "type": "function"
    },
    {
      "constant": false,
      "inputs": [
        {
          "name": "_name",
          "type": "string"
        },
        {
          "name": "_description",
          "type": "string"
        }
      ],
      "name": "addStore",
      "outputs": [
        {
          "name": "storeID",
          "type": "bytes32"
        }
      ],
      "payable": false,
      "stateMutability": "nonpayable",
      "type": "function"
    },
    {
      "constant": false,
      "inputs": [
        {
          "name": "_storeID",
          "type": "bytes32"
        }
      ],
      "name": "removeStore",
      "outputs": [
        {
          "name": "",
          "type": "bool"
        }
      ],
      "payable": false,
      "stateMutability": "nonpayable",
      "type": "function"
    },
    {
      "constant": false,
      "inputs": [
        {
          "name": "_storeID",
          "type": "bytes32"
        },
        {
          "name": "_name",
          "type": "string"
        },
        {
          "name": "_description",
          "type": "string"
        },
        {
          "name": "_price",
          "type": "uint256"
        },
        {
          "name": "_image",
          "type": "string"
        },
        {
          "name": "_stock",
          "type": "uint256"
        }
      ],
      "name": "addItem",
      "outputs": [
        {
          "name": "itemID",
          "type": "bytes32"
        }
      ],
      "payable": false,
      "stateMutability": "nonpayable",
      "type": "function"
    },
    {
      "constant": false,
      "inputs": [
        {
          "name": "_storeID",
          "type": "bytes32"
        },
        {
          "name": "_itemID",
          "type": "bytes32"
        }
      ],
      "name": "removeItem",
      "outputs": [
        {
          "name": "",
          "type": "bool"
        }
      ],
      "payable": false,
      "stateMutability": "nonpayable",
      "type": "function"
    },
    {
      "constant": false,
      "inputs": [
        {
          "name": "_storeOwner",
          "type": "address"
        },
        {
          "name": "_storeID",
          "type": "bytes32"
        },
        {
          "name": "_itemID",
          "type": "bytes32"
        }
      ],
      "name": "purchase",
      "outputs": [
        {
          "name": "",
          "type": "bool"
        }
      ],
      "payable": true,
      "stateMutability": "payable",
      "type": "function"
    },
    {
      "constant": false,
      "inputs": [],
      "name": "withdraw",
      "outputs": [
        {
          "name": "",
          "type": "bool"
        }
      ],
      "payable": false,
      "stateMutability": "nonpayable",
      "type": "function"
    },
    {
      "constant": false,
      "inputs": [
        {
          "name": "_storeID",
          "type": "bytes32"
        },
        {
          "name": "_itemID",
          "type": "bytes32"
        },
        {
          "name": "_amount",
          "type": "uint256"
        }
      ],
      "name": "restock",
      "outputs": [
        {
          "name": "",
          "type": "bool"
        }
      ],
      "payable": false,
      "stateMutability": "nonpayable",
      "type": "function"
    },
    {
      "constant": false,
      "inputs": [
        {
          "name": "_storeID",
          "type": "bytes32"
        },
        {
          "name": "_itemID",
          "type": "bytes32"
        },
        {
          "name": "_price",
          "type": "uint256"
        }
      ],
      "name": "changePrice",
      "outputs": [
        {
          "name": "",
          "type": "bool"
        }
      ],
      "payable": false,
      "stateMutability": "nonpayable",
      "type": "function"
    },
    {
      "constant": false,
      "inputs": [
        {
          "name": "_index",
          "type": "uint256"
        },
        {
          "name": "_storeOwner",
          "type": "address"
        }
      ],
      "name": "setFeaturedStoreOwner",
      "outputs": [],
      "payable": false,
      "stateMutability": "nonpayable",
      "type": "function"
    },
    {
      "constant": false,
      "inputs": [],
      "name": "flipEmergencySwitch",
      "outputs": [],
      "payable": false,
      "stateMutability": "nonpayable",
      "type": "function"
    },
    {
      "constant": true,
      "inputs": [
        {
          "name": "_storeOwner",
          "type": "address"
        }
      ],
      "name": "getStoreIdList",
      "outputs": [
        {
          "name": "",
          "type": "bytes32[]"
        }
      ],
      "payable": false,
      "stateMutability": "view",
      "type": "function"
    },
    {
      "constant": true,
      "inputs": [
        {
          "name": "_storeOwner",
          "type": "address"
        },
        {
          "name": "_storeID",
          "type": "bytes32"
        }
      ],
      "name": "getStore",
      "outputs": [
        {
          "name": "name",
          "type": "string"
        },
        {
          "name": "description",
          "type": "string"
        },
        {
          "name": "itemIdList",
          "type": "bytes32[]"
        },
        {
          "name": "index",
          "type": "uint256"
        },
        {
          "name": "active",
          "type": "bool"
        }
      ],
      "payable": false,
      "stateMutability": "view",
      "type": "function"
    },
    {
      "constant": true,
      "inputs": [
        {
          "name": "_storeOwner",
          "type": "address"
        },
        {
          "name": "_storeID",
          "type": "bytes32"
        }
      ],
      "name": "getItemIdList",
      "outputs": [
        {
          "name": "",
          "type": "bytes32[]"
        }
      ],
      "payable": false,
      "stateMutability": "view",
      "type": "function"
    },
    {
      "constant": true,
      "inputs": [
        {
          "name": "_storeOwner",
          "type": "address"
        },
        {
          "name": "_storeID",
          "type": "bytes32"
        },
        {
          "name": "_itemID",
          "type": "bytes32"
        }
      ],
      "name": "getItem",
      "outputs": [
        {
          "name": "name",
          "type": "string"
        },
        {
          "name": "description",
          "type": "string"
        },
        {
          "name": "image",
          "type": "string"
        },
        {
          "name": "price",
          "type": "uint256"
        },
        {
          "name": "stock",
          "type": "uint256"
        },
        {
          "name": "index",
          "type": "uint256"
        },
        {
          "name": "active",
          "type": "bool"
        }
      ],
      "payable": false,
      "stateMutability": "view",
      "type": "function"
    }
  ],
  "bytecode": "0x608060405234801561001057600080fd5b50336000806101000a81548173ffffffffffffffffffffffffffffffffffffffff021916908373ffffffffffffffffffffffffffffffffffffffff1602179055506000601060006101000a81548160ff0219169083151502179055506143aa8061007b6000396000f3fe608060405260043610610132576000357c0100000000000000000000000000000000000000000000000000000000900463ffffffff168062b7c60814610137578063057cc2a11461019457806312992854146101fd578063138169b3146102ad5780631785f53c146102c457806327e235e3146103155780633ccfd60b1461037a578063429b62e5146103a957806360cefa28146104125780636174fdd11461046557806370480275146104b657806374a401a5146105075780637703f0b4146106dd5780638872db7b1461074d5780638da5cb5b146107b45780638e4135411461080b5780638ec711ff146108725780639adeb5f1146108ed578063a1b6f0e71461093e578063bc933f6914610ad8578063d9633f0414610b7e578063ed48719c14610da6578063f6b08b1914610f19575b600080fd5b34801561014357600080fd5b5061017a6004803603604081101561015a57600080fd5b810190808035906020019092919080359060200190929190505050610f74565b604051808215151515815260200191505060405180910390f35b3480156101a057600080fd5b506101e3600480360360208110156101b757600080fd5b81019080803573ffffffffffffffffffffffffffffffffffffffff169060200190929190505050611423565b604051808215151515815260200191505060405180910390f35b34801561020957600080fd5b506102566004803603604081101561022057600080fd5b81019080803573ffffffffffffffffffffffffffffffffffffffff16906020019092919080359060200190929190505050611443565b6040518080602001828103825283818151815260200191508051906020019060200280838360005b8381101561029957808201518184015260208101905061027e565b505050509050019250505060405180910390f35b3480156102b957600080fd5b506102c26114ef565b005b3480156102d057600080fd5b50610313600480360360208110156102e757600080fd5b81019080803573ffffffffffffffffffffffffffffffffffffffff1690602001909291905050506115df565b005b34801561032157600080fd5b506103646004803603602081101561033857600080fd5b81019080803573ffffffffffffffffffffffffffffffffffffffff169060200190929190505050611819565b6040518082815260200191505060405180910390f35b34801561038657600080fd5b5061038f611831565b604051808215151515815260200191505060405180910390f35b3480156103b557600080fd5b506103f8600480360360208110156103cc57600080fd5b81019080803573ffffffffffffffffffffffffffffffffffffffff1690602001909291905050506119d0565b604051808215151515815260200191505060405180910390f35b34801561041e57600080fd5b5061044b6004803603602081101561043557600080fd5b81019080803590602001909291905050506119f0565b604051808215151515815260200191505060405180910390f35b34801561047157600080fd5b506104b46004803603602081101561048857600080fd5b81019080803573ffffffffffffffffffffffffffffffffffffffff169060200190929190505050611da2565b005b3480156104c257600080fd5b50610505600480360360208110156104d957600080fd5b81019080803573ffffffffffffffffffffffffffffffffffffffff169060200190929190505050611ff0565b005b34801561051357600080fd5b5061056a6004803603606081101561052a57600080fd5b81019080803573ffffffffffffffffffffffffffffffffffffffff169060200190929190803590602001909291908035906020019092919050505061222a565b604051808060200180602001806020018881526020018781526020018681526020018515151515815260200184810384528b818151815260200191508051906020019080838360005b838110156105ce5780820151818401526020810190506105b3565b50505050905090810190601f1680156105fb5780820380516001836020036101000a031916815260200191505b5084810383528a818151815260200191508051906020019080838360005b83811015610634578082015181840152602081019050610619565b50505050905090810190601f1680156106615780820380516001836020036101000a031916815260200191505b50848103825289818151815260200191508051906020019080838360005b8381101561069a57808201518184015260208101905061067f565b50505050905090810190601f1680156106c75780820380516001836020036101000a031916815260200191505b509a505050505050505050505060405180910390f35b610733600480360360608110156106f357600080fd5b81019080803573ffffffffffffffffffffffffffffffffffffffff1690602001909291908035906020019092919080359060200190929190505050612518565b604051808215151515815260200191505060405180910390f35b34801561075957600080fd5b5061079a6004803603606081101561077057600080fd5b810190808035906020019092919080359060200190929190803590602001909291905050506128f5565b604051808215151515815260200191505060405180910390f35b3480156107c057600080fd5b506107c9612c65565b604051808273ffffffffffffffffffffffffffffffffffffffff1673ffffffffffffffffffffffffffffffffffffffff16815260200191505060405180910390f35b34801561081757600080fd5b506108586004803603606081101561082e57600080fd5b81019080803590602001909291908035906020019092919080359060200190929190505050612c8a565b604051808215151515815260200191505060405180910390f35b34801561087e57600080fd5b506108ab6004803603602081101561089557600080fd5b8101908080359060200190929190505050613010565b604051808273ffffffffffffffffffffffffffffffffffffffff1673ffffffffffffffffffffffffffffffffffffffff16815260200191505060405180910390f35b3480156108f957600080fd5b5061093c6004803603602081101561091057600080fd5b81019080803573ffffffffffffffffffffffffffffffffffffffff169060200190929190505050613045565b005b34801561094a57600080fd5b506109976004803603604081101561096157600080fd5b81019080803573ffffffffffffffffffffffffffffffffffffffff16906020019092919080359060200190929190505050613294565b6040518080602001806020018060200186815260200185151515158152602001848103845289818151815260200191508051906020019080838360005b838110156109ef5780820151818401526020810190506109d4565b50505050905090810190601f168015610a1c5780820380516001836020036101000a031916815260200191505b50848103835288818151815260200191508051906020019080838360005b83811015610a55578082015181840152602081019050610a3a565b50505050905090810190601f168015610a825780820380516001836020036101000a031916815260200191505b50848103825287818151815260200191508051906020019060200280838360005b83811015610abe578082015181840152602081019050610aa3565b505050509050019850505050505050505060405180910390f35b348015610ae457600080fd5b50610b2760048036036020811015610afb57600080fd5b81019080803573ffffffffffffffffffffffffffffffffffffffff1690602001909291905050506134fb565b6040518080602001828103825283818151815260200191508051906020019060200280838360005b83811015610b6a578082015181840152602081019050610b4f565b505050509050019250505060405180910390f35b348015610b8a57600080fd5b50610d90600480360360c0811015610ba157600080fd5b810190808035906020019092919080359060200190640100000000811115610bc857600080fd5b820183602082011115610bda57600080fd5b80359060200191846001830284011164010000000083111715610bfc57600080fd5b91908080601f016020809104026020016040519081016040528093929190818152602001838380828437600081840152601f19601f82011690508083019250505050505050919291929080359060200190640100000000811115610c5f57600080fd5b820183602082011115610c7157600080fd5b80359060200191846001830284011164010000000083111715610c9357600080fd5b91908080601f016020809104026020016040519081016040528093929190818152602001838380828437600081840152601f19601f8201169050808301925050505050505091929192908035906020019092919080359060200190640100000000811115610d0057600080fd5b820183602082011115610d1257600080fd5b80359060200191846001830284011164010000000083111715610d3457600080fd5b91908080601f016020809104026020016040519081016040528093929190818152602001838380828437600081840152601f19601f82011690508083019250505050505050919291929080359060200190929190505050613592565b6040518082815260200191505060405180910390f35b348015610db257600080fd5b50610f0360048036036040811015610dc957600080fd5b8101908080359060200190640100000000811115610de657600080fd5b820183602082011115610df857600080fd5b80359060200191846001830284011164010000000083111715610e1a57600080fd5b91908080601f016020809104026020016040519081016040528093929190818152602001838380828437600081840152601f19601f82011690508083019250505050505050919291929080359060200190640100000000811115610e7d57600080fd5b820183602082011115610e8f57600080fd5b80359060200191846001830284011164010000000083111715610eb157600080fd5b91908080601f016020809104026020016040519081016040528093929190818152602001838380828437600081840152601f19601f820116905080830192505050505050509192919290505050613b27565b6040518082815260200191505060405180910390f35b348015610f2557600080fd5b50610f7260048036036040811015610f3c57600080fd5b8101908080359060200190929190803573ffffffffffffffffffffffffffffffffffffffff169060200190929190505050613fb5565b005b6000600260003373ffffffffffffffffffffffffffffffffffffffff1673ffffffffffffffffffffffffffffffffffffffff16815260200190815260200160002060009054906101000a900460ff161515611037576040517f08c379a00000000000000000000000000000000000000000000000000000000081526004018080602001828103825260198152602001807f63616c6c6572206973206e6f742073746f7265206f776e65720000000000000081525060200191505060405180910390fd5b601060009054906101000a900460ff161515156110bc576040517f08c379a000000000000000000000000000000000000000000000000000000000815260040180806020018281038252601a8152602001807f656d657267656e6379207377697463682069732061637469766500000000000081525060200191505060405180910390fd5b6000600360003373ffffffffffffffffffffffffffffffffffffffff1673ffffffffffffffffffffffffffffffffffffffff1681526020019081526020016000206000858152602001908152602001600020600301600084815260200190815260200160002090506000600360003373ffffffffffffffffffffffffffffffffffffffff1673ffffffffffffffffffffffffffffffffffffffff16815260200190815260200160002060008681526020019081526020016000206004019050600360003373ffffffffffffffffffffffffffffffffffffffff1673ffffffffffffffffffffffffffffffffffffffff168152602001908152602001600020600086815260200190815260200160002060060160009054906101000a900460ff161515611250576040517f08c379a00000000000000000000000000000000000000000000000000000000081526004018080602001828103825260138152602001807f73746f7265206973206e6f74206163746976650000000000000000000000000081525060200191505060405180910390fd5b8160070160009054906101000a900460ff1615156112d6576040517f08c379a000000000000000000000000000000000000000000000000000000000815260040180806020018281038252600f8152602001807f6974656d206e6f7420616374697665000000000000000000000000000000000081525060200191505060405180910390fd5b6000826006015490508160018380549050038154811015156112f457fe5b9060005260206000200154828281548110151561130d57fe5b906000526020600020018190555080600360003373ffffffffffffffffffffffffffffffffffffffff1673ffffffffffffffffffffffffffffffffffffffff16815260200190815260200160002060008881526020019081526020016000206003016000848481548110151561137f57fe5b9060005260206000200154815260200190815260200160002060060181905550818054809190600190036113b39190614188565b5060008360070160006101000a81548160ff02191690831515021790555084863373ffffffffffffffffffffffffffffffffffffffff167fc4f39fc7cd8d9cecca72619a2f3112ebc8927e9f54197097204bd7d181f53d8560405160405180910390a46001935050505092915050565b60026020528060005260406000206000915054906101000a900460ff1681565b6060600360008473ffffffffffffffffffffffffffffffffffffffff1673ffffffffffffffffffffffffffffffffffffffff16815260200190815260200160002060008381526020019081526020016000206004018054806020026020016040519081016040528092919081815260200182805480156114e257602002820191906000526020600020905b8154815260200190600101908083116114ce575b5050505050905092915050565b3373ffffffffffffffffffffffffffffffffffffffff166000809054906101000a900473ffffffffffffffffffffffffffffffffffffffff1673ffffffffffffffffffffffffffffffffffffffff161415156115b3576040517f08c379a00000000000000000000000000000000000000000000000000000000081526004018080602001828103825260138152602001807f63616c6c6572206973206e6f74206f776e65720000000000000000000000000081525060200191505060405180910390fd5b601060009054906101000a900460ff1615601060006101000a81548160ff021916908315150217905550565b3373ffffffffffffffffffffffffffffffffffffffff166000809054906101000a900473ffffffffffffffffffffffffffffffffffffffff1673ffffffffffffffffffffffffffffffffffffffff161415156116a3576040517f08c379a00000000000000000000000000000000000000000000000000000000081526004018080602001828103825260138152602001807f63616c6c6572206973206e6f74206f776e65720000000000000000000000000081525060200191505060405180910390fd5b601060009054906101000a900460ff16151515611728576040517f08c379a000000000000000000000000000000000000000000000000000000000815260040180806020018281038252601a8152602001807f656d657267656e6379207377697463682069732061637469766500000000000081525060200191505060405180910390fd5b600160008273ffffffffffffffffffffffffffffffffffffffff1673ffffffffffffffffffffffffffffffffffffffff16815260200190815260200160002060009054906101000a900460ff16156117be578073ffffffffffffffffffffffffffffffffffffffff167f3137a7fedbfedb7895dfa5a6812a4566dae9ded68d00aeec13c6ed1fa84a1c8060405160405180910390a25b6000600160008373ffffffffffffffffffffffffffffffffffffffff1673ffffffffffffffffffffffffffffffffffffffff16815260200190815260200160002060006101000a81548160ff02191690831515021790555050565b600f6020528060005260406000206000915090505481565b600080600f60003373ffffffffffffffffffffffffffffffffffffffff1673ffffffffffffffffffffffffffffffffffffffff1681526020019081526020016000205490506000811115156118ee576040517f08c379a000000000000000000000000000000000000000000000000000000000815260040180806020018281038252600a8152602001807f6e6f2062616c616e63650000000000000000000000000000000000000000000081525060200191505060405180910390fd5b6000600f60003373ffffffffffffffffffffffffffffffffffffffff1673ffffffffffffffffffffffffffffffffffffffff168152602001908152602001600020819055503373ffffffffffffffffffffffffffffffffffffffff166108fc829081150290604051600060405180830381858888f19350505050158015611979573d6000803e3d6000fd5b503373ffffffffffffffffffffffffffffffffffffffff167f7fcf532c15f0a6db0bd6d0e038bea71d30d808c7d98cb3bf7268a95bf5081b65826040518082815260200191505060405180910390a2600191505090565b60016020528060005260406000206000915054906101000a900460ff1681565b6000600260003373ffffffffffffffffffffffffffffffffffffffff1673ffffffffffffffffffffffffffffffffffffffff16815260200190815260200160002060009054906101000a900460ff161515611ab3576040517f08c379a00000000000000000000000000000000000000000000000000000000081526004018080602001828103825260198152602001807f63616c6c6572206973206e6f742073746f7265206f776e65720000000000000081525060200191505060405180910390fd5b601060009054906101000a900460ff16151515611b38576040517f08c379a000000000000000000000000000000000000000000000000000000000815260040180806020018281038252601a8152602001807f656d657267656e6379207377697463682069732061637469766500000000000081525060200191505060405180910390fd5b6000600360003373ffffffffffffffffffffffffffffffffffffffff1673ffffffffffffffffffffffffffffffffffffffff168152602001908152602001600020600084815260200190815260200160002090506000600460003373ffffffffffffffffffffffffffffffffffffffff1673ffffffffffffffffffffffffffffffffffffffff16815260200190815260200160002090508160060160009054906101000a900460ff161515611c55576040517f08c379a000000000000000000000000000000000000000000000000000000000815260040180806020018281038252601a8152602001807f73746f72652063757272656e746c79206e6f742061637469766500000000000081525060200191505060405180910390fd5b600082600501549050816001838054905003815481101515611c7357fe5b9060005260206000200154828460050154815481101515611c9057fe5b906000526020600020018190555080600360003373ffffffffffffffffffffffffffffffffffffffff1673ffffffffffffffffffffffffffffffffffffffff16815260200190815260200160002060008484815481101515611cee57fe5b906000526020600020015481526020019081526020016000206005018190555081805480919060019003611d229190614188565b5060008360040181611d3491906141b4565b5060008360060160006101000a81548160ff021916908315150217905550843373ffffffffffffffffffffffffffffffffffffffff167f88145275798306f84e4ecc1acba885f3e25f4059c86ed5d046d17e233f942b0f60405160405180910390a360019350505050919050565b600160003373ffffffffffffffffffffffffffffffffffffffff1673ffffffffffffffffffffffffffffffffffffffff16815260200190815260200160002060009054906101000a900460ff161515611e63576040517f08c379a00000000000000000000000000000000000000000000000000000000081526004018080602001828103825260138152602001807f63616c6c6572206973206e6f742061646d696e0000000000000000000000000081525060200191505060405180910390fd5b601060009054906101000a900460ff16151515611ee8576040517f08c379a000000000000000000000000000000000000000000000000000000000815260040180806020018281038252601a8152602001807f656d657267656e6379207377697463682069732061637469766500000000000081525060200191505060405180910390fd5b600260008273ffffffffffffffffffffffffffffffffffffffff1673ffffffffffffffffffffffffffffffffffffffff16815260200190815260200160002060009054906101000a900460ff1615611f95573373ffffffffffffffffffffffffffffffffffffffff168173ffffffffffffffffffffffffffffffffffffffff167f5bc85634de52ca3246bb3c9377a71e8a0ad6e1419e15c700003aef4a245e3b8160405160405180910390a35b6000600260008373ffffffffffffffffffffffffffffffffffffffff1673ffffffffffffffffffffffffffffffffffffffff16815260200190815260200160002060006101000a81548160ff02191690831515021790555050565b3373ffffffffffffffffffffffffffffffffffffffff166000809054906101000a900473ffffffffffffffffffffffffffffffffffffffff1673ffffffffffffffffffffffffffffffffffffffff161415156120b4576040517f08c379a00000000000000000000000000000000000000000000000000000000081526004018080602001828103825260138152602001807f63616c6c6572206973206e6f74206f776e65720000000000000000000000000081525060200191505060405180910390fd5b601060009054906101000a900460ff16151515612139576040517f08c379a000000000000000000000000000000000000000000000000000000000815260040180806020018281038252601a8152602001807f656d657267656e6379207377697463682069732061637469766500000000000081525060200191505060405180910390fd5b600160008273ffffffffffffffffffffffffffffffffffffffff1673ffffffffffffffffffffffffffffffffffffffff16815260200190815260200160002060009054906101000a900460ff1615156121d0578073ffffffffffffffffffffffffffffffffffffffff167f7849194239ab1d31b991b5436d81370256505cf25eaafbcccbc66acd1189691660405160405180910390a25b60018060008373ffffffffffffffffffffffffffffffffffffffff1673ffffffffffffffffffffffffffffffffffffffff16815260200190815260200160002060006101000a81548160ff02191690831515021790555050565b606080606060008060008061223d6141e0565b600360008c73ffffffffffffffffffffffffffffffffffffffff1673ffffffffffffffffffffffffffffffffffffffff16815260200190815260200160002060008b815260200190815260200160002060030160008a8152602001908152602001600020610100604051908101604052908160008201548152602001600182018054600181600116156101000203166002900480601f0160208091040260200160405190810160405280929190818152602001828054600181600116156101000203166002900480156123515780601f1061232657610100808354040283529160200191612351565b820191906000526020600020905b81548152906001019060200180831161233457829003601f168201915b50505050508152602001600282018054600181600116156101000203166002900480601f0160208091040260200160405190810160405280929190818152602001828054600181600116156101000203166002900480156123f35780601f106123c8576101008083540402835291602001916123f3565b820191906000526020600020905b8154815290600101906020018083116123d657829003601f168201915b50505050508152602001600382018054600181600116156101000203166002900480601f0160208091040260200160405190810160405280929190818152602001828054600181600116156101000203166002900480156124955780601f1061246a57610100808354040283529160200191612495565b820191906000526020600020905b81548152906001019060200180831161247857829003601f168201915b505050505081526020016004820154815260200160058201548152602001600682015481526020016007820160009054906101000a900460ff1615151515815250509050806020015197508060400151965080606001519550806080015194508060a0015193508060c0015192508060e001519150509397509397509397909450565b6000601060009054906101000a900460ff1615151561259f576040517f08c379a000000000000000000000000000000000000000000000000000000000815260040180806020018281038252601a8152602001807f656d657267656e6379207377697463682069732061637469766500000000000081525060200191505060405180910390fd5b6000600360008673ffffffffffffffffffffffffffffffffffffffff1673ffffffffffffffffffffffffffffffffffffffff168152602001908152602001600020600085815260200190815260200160002060030160008481526020019081526020016000209050600360008673ffffffffffffffffffffffffffffffffffffffff1673ffffffffffffffffffffffffffffffffffffffff168152602001908152602001600020600085815260200190815260200160002060060160009054906101000a900460ff1615156126dc576040517f08c379a00000000000000000000000000000000000000000000000000000000081526004018080602001828103825260168152602001807f73746f72652068617320746f206265206163746976650000000000000000000081525060200191505060405180910390fd5b806004015434141515612757576040517f08c379a000000000000000000000000000000000000000000000000000000000815260040180806020018281038252601f8152602001807f73656e742076616c756520646f6573206e6f74206d617463682070726963650081525060200191505060405180910390fd5b600081600501541115156127d3576040517f08c379a00000000000000000000000000000000000000000000000000000000081526004018080602001828103825260118152602001807f6974656d206f7574206f662073746f636b00000000000000000000000000000081525060200191505060405180910390fd5b6001816005016000828254039250508190555061283834600f60008873ffffffffffffffffffffffffffffffffffffffff1673ffffffffffffffffffffffffffffffffffffffff1681526020019081526020016000205461415190919063ffffffff16565b600f60008773ffffffffffffffffffffffffffffffffffffffff1673ffffffffffffffffffffffffffffffffffffffff168152602001908152602001600020819055503373ffffffffffffffffffffffffffffffffffffffff16848673ffffffffffffffffffffffffffffffffffffffff167f6e71c382d241be9272ad0fb169a8a38ae18392c287b404ff178645302f6c8f528634604051808381526020018281526020019250505060405180910390a460019150509392505050565b6000600260003373ffffffffffffffffffffffffffffffffffffffff1673ffffffffffffffffffffffffffffffffffffffff16815260200190815260200160002060009054906101000a900460ff1615156129b8576040517f08c379a00000000000000000000000000000000000000000000000000000000081526004018080602001828103825260198152602001807f63616c6c6572206973206e6f742073746f7265206f776e65720000000000000081525060200191505060405180910390fd5b601060009054906101000a900460ff16151515612a3d576040517f08c379a000000000000000000000000000000000000000000000000000000000815260040180806020018281038252601a8152602001807f656d657267656e6379207377697463682069732061637469766500000000000081525060200191505060405180910390fd5b6000600360003373ffffffffffffffffffffffffffffffffffffffff1673ffffffffffffffffffffffffffffffffffffffff168152602001908152602001600020600086815260200190815260200160002060030160008581526020019081526020016000209050600360003373ffffffffffffffffffffffffffffffffffffffff1673ffffffffffffffffffffffffffffffffffffffff168152602001908152602001600020600086815260200190815260200160002060060160009054906101000a900460ff161515612b7a576040517f08c379a00000000000000000000000000000000000000000000000000000000081526004018080602001828103825260138152602001807f73746f7265206973206e6f74206163746976650000000000000000000000000081525060200191505060405180910390fd5b8060070160009054906101000a900460ff161515612c00576040517f08c379a00000000000000000000000000000000000000000000000000000000081526004018080602001828103825260128152602001807f6974656d206973206e6f7420616374697665000000000000000000000000000081525060200191505060405180910390fd5b82816004018190555083853373ffffffffffffffffffffffffffffffffffffffff167f77938cd30d1e5e3187c3fb36f9cfcb72aea2e742838e67bce3e1dc6c6880e125866040518082815260200191505060405180910390a460019150509392505050565b6000809054906101000a900473ffffffffffffffffffffffffffffffffffffffff1681565b6000600260003373ffffffffffffffffffffffffffffffffffffffff1673ffffffffffffffffffffffffffffffffffffffff16815260200190815260200160002060009054906101000a900460ff161515612d4d576040517f08c379a00000000000000000000000000000000000000000000000000000000081526004018080602001828103825260198152602001807f63616c6c6572206973206e6f742073746f7265206f776e65720000000000000081525060200191505060405180910390fd5b601060009054906101000a900460ff16151515612dd2576040517f08c379a000000000000000000000000000000000000000000000000000000000815260040180806020018281038252601a8152602001807f656d657267656e6379207377697463682069732061637469766500000000000081525060200191505060405180910390fd5b6000600360003373ffffffffffffffffffffffffffffffffffffffff1673ffffffffffffffffffffffffffffffffffffffff168152602001908152602001600020600086815260200190815260200160002060030160008581526020019081526020016000209050600360003373ffffffffffffffffffffffffffffffffffffffff1673ffffffffffffffffffffffffffffffffffffffff168152602001908152602001600020600086815260200190815260200160002060060160009054906101000a900460ff161515612f0f576040517f08c379a00000000000000000000000000000000000000000000000000000000081526004018080602001828103825260138152602001807f73746f7265206973206e6f74206163746976650000000000000000000000000081525060200191505060405180910390fd5b8060070160009054906101000a900460ff161515612f95576040517f08c379a00000000000000000000000000000000000000000000000000000000081526004018080602001828103825260128152602001807f6974656d206973206e6f7420616374697665000000000000000000000000000081525060200191505060405180910390fd5b612fac83826005015461415190919063ffffffff16565b816005018190555083853373ffffffffffffffffffffffffffffffffffffffff167ff0415bbbcc48ef36411daa288c01dc7df21a031ebecae8002b465ba0c943e8ff866040518082815260200191505060405180910390a460019150509392505050565b600581600a8110151561301f57fe5b016000915054906101000a900473ffffffffffffffffffffffffffffffffffffffff1681565b600160003373ffffffffffffffffffffffffffffffffffffffff1673ffffffffffffffffffffffffffffffffffffffff16815260200190815260200160002060009054906101000a900460ff161515613106576040517f08c379a00000000000000000000000000000000000000000000000000000000081526004018080602001828103825260138152602001807f63616c6c6572206973206e6f742061646d696e0000000000000000000000000081525060200191505060405180910390fd5b601060009054906101000a900460ff1615151561318b576040517f08c379a000000000000000000000000000000000000000000000000000000000815260040180806020018281038252601a8152602001807f656d657267656e6379207377697463682069732061637469766500000000000081525060200191505060405180910390fd5b600260008273ffffffffffffffffffffffffffffffffffffffff1673ffffffffffffffffffffffffffffffffffffffff16815260200190815260200160002060009054906101000a900460ff161515613239573373ffffffffffffffffffffffffffffffffffffffff168173ffffffffffffffffffffffffffffffffffffffff167f53c2b9d1c3537277c4c9c8d4562935a17348d2b86a2a048580b4d5933683432060405160405180910390a35b6001600260008373ffffffffffffffffffffffffffffffffffffffff1673ffffffffffffffffffffffffffffffffffffffff16815260200190815260200160002060006101000a81548160ff02191690831515021790555050565b60608060606000806132a461422b565b600360008973ffffffffffffffffffffffffffffffffffffffff1673ffffffffffffffffffffffffffffffffffffffff168152602001908152602001600020600088815260200190815260200160002060c0604051908101604052908160008201548152602001600182018054600181600116156101000203166002900480601f0160208091040260200160405190810160405280929190818152602001828054600181600116156101000203166002900480156133a35780601f10613378576101008083540402835291602001916133a3565b820191906000526020600020905b81548152906001019060200180831161338657829003601f168201915b50505050508152602001600282018054600181600116156101000203166002900480601f0160208091040260200160405190810160405280929190818152602001828054600181600116156101000203166002900480156134455780601f1061341a57610100808354040283529160200191613445565b820191906000526020600020905b81548152906001019060200180831161342857829003601f168201915b505050505081526020016004820180548060200260200160405190810160405280929190818152602001828054801561349d57602002820191906000526020600020905b815481526020019060010190808311613489575b50505050508152602001600582015481526020016006820160009054906101000a900460ff1615151515815250509050806020015195508060400151945080606001519350806080015192508060a001519150509295509295909350565b6060600460008373ffffffffffffffffffffffffffffffffffffffff1673ffffffffffffffffffffffffffffffffffffffff16815260200190815260200160002080548060200260200160405190810160405280929190818152602001828054801561358657602002820191906000526020600020905b815481526020019060010190808311613572575b50505050509050919050565b6000600260003373ffffffffffffffffffffffffffffffffffffffff1673ffffffffffffffffffffffffffffffffffffffff16815260200190815260200160002060009054906101000a900460ff161515613655576040517f08c379a00000000000000000000000000000000000000000000000000000000081526004018080602001828103825260198152602001807f63616c6c6572206973206e6f742073746f7265206f776e65720000000000000081525060200191505060405180910390fd5b601060009054906101000a900460ff161515156136da576040517f08c379a000000000000000000000000000000000000000000000000000000000815260040180806020018281038252601a8152602001807f656d657267656e6379207377697463682069732061637469766500000000000081525060200191505060405180910390fd5b6000600360003373ffffffffffffffffffffffffffffffffffffffff1673ffffffffffffffffffffffffffffffffffffffff1681526020019081526020016000206000898152602001908152602001600020600401905086818054905033436040516020018085805190602001908083835b602083101515613771578051825260208201915060208101905060208303925061374c565b6001836020036101000a0380198251168184511680821785525050505050509050018481526020018373ffffffffffffffffffffffffffffffffffffffff1673ffffffffffffffffffffffffffffffffffffffff166c01000000000000000000000000028152601401828152602001945050505050604051602081830303815290604052805190602001209150600360003373ffffffffffffffffffffffffffffffffffffffff1673ffffffffffffffffffffffffffffffffffffffff168152602001908152602001600020600089815260200190815260200160002060060160009054906101000a900460ff1615156138d3576040517f08c379a00000000000000000000000000000000000000000000000000000000081526004018080602001828103825260138152602001807f73746f7265206973206e6f74206163746976650000000000000000000000000081525060200191505060405180910390fd5b600360003373ffffffffffffffffffffffffffffffffffffffff1673ffffffffffffffffffffffffffffffffffffffff1681526020019081526020016000206000898152602001908152602001600020600301600083815260200190815260200160002060070160009054906101000a900460ff1615151561395157fe5b6000613990600183859080600181540180825580915050906001820390600052602060002001600090919290919091505561416f90919063ffffffff16565b90506101006040519081016040528084815260200189815260200188815260200186815260200187815260200185815260200182815260200160011515815250600360003373ffffffffffffffffffffffffffffffffffffffff1673ffffffffffffffffffffffffffffffffffffffff16815260200190815260200160002060008b81526020019081526020016000206003016000858152602001908152602001600020600082015181600001556020820151816001019080519060200190613a5a929190614267565b506040820151816002019080519060200190613a77929190614267565b506060820151816003019080519060200190613a94929190614267565b506080820151816004015560a0820151816005015560c0820151816006015560e08201518160070160006101000a81548160ff02191690831515021790555090505082893373ffffffffffffffffffffffffffffffffffffffff167febc9cb7e7c7b6ab10237201d210c96ce34b5a4ad1609ef6e8cdbab509cfb043b60405160405180910390a450509695505050505050565b6000600260003373ffffffffffffffffffffffffffffffffffffffff1673ffffffffffffffffffffffffffffffffffffffff16815260200190815260200160002060009054906101000a900460ff161515613bea576040517f08c379a00000000000000000000000000000000000000000000000000000000081526004018080602001828103825260198152602001807f63616c6c6572206973206e6f742073746f7265206f776e65720000000000000081525060200191505060405180910390fd5b601060009054906101000a900460ff16151515613c6f576040517f08c379a000000000000000000000000000000000000000000000000000000000815260040180806020018281038252601a8152602001807f656d657267656e6379207377697463682069732061637469766500000000000081525060200191505060405180910390fd5b6000600460003373ffffffffffffffffffffffffffffffffffffffff1673ffffffffffffffffffffffffffffffffffffffff168152602001908152602001600020905083818054905033436040516020018085805190602001908083835b602083101515613cf25780518252602082019150602081019050602083039250613ccd565b6001836020036101000a0380198251168184511680821785525050505050509050018481526020018373ffffffffffffffffffffffffffffffffffffffff1673ffffffffffffffffffffffffffffffffffffffff166c01000000000000000000000000028152601401828152602001945050505050604051602081830303815290604052805190602001209150600360003373ffffffffffffffffffffffffffffffffffffffff1673ffffffffffffffffffffffffffffffffffffffff168152602001908152602001600020600083815260200190815260200160002060060160009054906101000a900460ff16151515613de957fe5b6000613e28600183859080600181540180825580915050906001820390600052602060002001600090919290919091505561416f90919063ffffffff16565b905060c0604051908101604052808481526020018681526020018581526020016000604051908082528060200260200182016040528015613e785781602001602082028038833980820191505090505b50815260200182815260200160011515815250600360003373ffffffffffffffffffffffffffffffffffffffff1673ffffffffffffffffffffffffffffffffffffffff1681526020019081526020016000206000858152602001908152602001600020600082015181600001556020820151816001019080519060200190613f01929190614267565b506040820151816002019080519060200190613f1e929190614267565b506060820151816004019080519060200190613f3b9291906142e7565b506080820151816005015560a08201518160060160006101000a81548160ff021916908315150217905550905050823373ffffffffffffffffffffffffffffffffffffffff167f9b71bc718f51cc1d6fecc7361e4701ed4ae6ed0c14dd388549293c4d5e3d497560405160405180910390a3505092915050565b3373ffffffffffffffffffffffffffffffffffffffff166000809054906101000a900473ffffffffffffffffffffffffffffffffffffffff1673ffffffffffffffffffffffffffffffffffffffff16141515614079576040517f08c379a00000000000000000000000000000000000000000000000000000000081526004018080602001828103825260138152602001807f63616c6c6572206973206e6f74206f776e65720000000000000000000000000081525060200191505060405180910390fd5b601060009054906101000a900460ff161515156140fe576040517f08c379a000000000000000000000000000000000000000000000000000000000815260040180806020018281038252601a8152602001807f656d657267656e6379207377697463682069732061637469766500000000000081525060200191505060405180910390fd5b80600583600a8110151561410e57fe5b0160006101000a81548173ffffffffffffffffffffffffffffffffffffffff021916908373ffffffffffffffffffffffffffffffffffffffff1602179055505050565b600080828401905083811015151561416557fe5b8091505092915050565b600082821115151561417d57fe5b818303905092915050565b8154818355818111156141af578183600052602060002091820191016141ae9190614334565b5b505050565b8154818355818111156141db578183600052602060002091820191016141da9190614334565b5b505050565b61010060405190810160405280600080191681526020016060815260200160608152602001606081526020016000815260200160008152602001600081526020016000151581525090565b60c06040519081016040528060008019168152602001606081526020016060815260200160608152602001600081526020016000151581525090565b828054600181600116156101000203166002900490600052602060002090601f016020900481019282601f106142a857805160ff19168380011785556142d6565b828001600101855582156142d6579182015b828111156142d55782518255916020019190600101906142ba565b5b5090506142e39190614359565b5090565b828054828255906000526020600020908101928215614323579160200282015b82811115614322578251825591602001919060010190614307565b5b5090506143309190614334565b5090565b61435691905b8082111561435257600081600090555060010161433a565b5090565b90565b61437b91905b8082111561437757600081600090555060010161435f565b5090565b9056fea165627a7a72305820eb9a6b4958c3a07f4c456cf1cb081f14a8b03d4828834e14d5bc34f30a86286c0029",
  "source": "pragma solidity 0.5.0;\n\n/// @title SafeMath\n/// @dev Math operations with safety checks that throw on error\nlibrary SafeMath {\n\n    function mul(uint256 a, uint256 b) internal pure returns (uint256) {\n        uint256 c = a * b;\n        assert(a == 0 || c / a == b);\n        return c;\n    }\n\n    function div(uint256 a, uint256 b) internal pure returns (uint256) {\n        // assert(b > 0); // Solidity automatically throws when dividing by 0\n        uint256 c = a / b;\n        // assert(a == b * c + a % b); // There is no case in which this doesn't hold\n        return c;\n    }\n\n    function sub(uint256 a, uint256 b) internal pure returns (uint256) {\n        assert(b <= a);\n        return a - b;\n    }\n\n    function add(uint256 a, uint256 b) internal pure returns (uint256) {\n        uint256 c = a + b;\n        assert(c >= a);\n        return c;\n    }\n\n}\n\n/// @title Marketplace\n/// @author Daniel Gretzke\ncontract Marketplace {\n\n    using SafeMath for uint256;\n    // owner, admin, storeOwner variables\n    address public owner;\n    mapping(address => bool) public admins;\n    mapping(address => bool) public storeOwners;\n\n    // events\n    event AddedAdmin(address indexed admin);\n    event RemovedAdmin(address indexed admin);\n    event AddedStoreOwner(address indexed storeOwner, address indexed admin);\n    event RemovedStoreOwner(address indexed storeOwner, address indexed admin);\n\n    event AddedStore(address indexed storeOwner, bytes32 indexed storeID);\n    event RemovedStore(address indexed storeOwner, bytes32 indexed storeID);\n    event AddedItem(address indexed storeOwner, bytes32 indexed storeID, bytes32 indexed itemID);\n    event RemovedItem(address indexed storeOwner, bytes32 indexed storeID, bytes32 indexed itemID);\n\n    event Purchase(address indexed storeOwner, bytes32 indexed storeID, bytes32 itemID, address indexed customer, uint256 price);\n    event Withdrawal(address indexed storeOwner, uint256 amount);\n    event Restocking(address indexed storeOwner, bytes32 indexed storeID, bytes32 indexed itemID, uint256 amount);\n    event PriceChange(address indexed storeOwner, bytes32 indexed storeID, bytes32 indexed itemID, uint256 newPrice);\n\n    // store and item structs\n    struct Store {\n        bytes32 storeID;\n        string name;\n        string description;\n        // items are stored inside a mapping, mapped from a bytes32 key to an item\n        mapping(bytes32 => Item) items;\n        // items can be retreived via an unordered array of bytes32 keys\n        bytes32[] itemIdList;\n        // index inside storeIdList array for cheap deletion of stores\n        uint256 index;\n        bool active;\n    }\n\n    struct Item {\n        bytes32 itemID;\n        string name;\n        string description;\n        // ipfs hash\n        string image;\n        uint256 price;\n        uint256 stock;\n        // index inside itemIdList array for cheap deletion of items\n        uint256 index;\n        bool active;\n    }\n\n    // stores are stored inside a mapping, mapped from a bytes32 key to a store\n    // each storeOwner has its own mapping to store stores in\n    mapping(address => mapping(bytes32 => Store)) private stores;\n    // stores can be retreived via an unordered array of bytes32 keys\n    mapping(address => bytes32[]) private storeIdLists;\n    // fixed size array to store featured storeOwners inside the marketplace\n    address[10] public featuredStoreOwners;\n\n    // balances of storeOwners\n    mapping(address => uint256) public balances;\n\n    // emergency switch\n    bool emergencySwitch;\n\n    /// @dev modifier, verifies that caller is owner\n    modifier onlyOwner() {\n        require(owner == msg.sender, \"caller is not owner\");\n        _;\n    }\n\n    /// @dev modifier, verifies that caller is admin\n    modifier onlyAdmin() {\n        require(admins[msg.sender], \"caller is not admin\");\n        _;\n    }\n\n    /// @dev modifier, verifies that caller is store owner\n    modifier onlyStoreOwner() {\n        require(storeOwners[msg.sender], \"caller is not store owner\");\n        _;\n    }\n\n    modifier stopInEmergency() {\n        require(!emergencySwitch, \"emergency switch is active\");\n        _;\n    }\n\n    /// @dev constructor\n    constructor() public {\n        owner = msg.sender;\n        emergencySwitch = false;\n    }\n\n    /// @notice add administrator\n    /// @dev only callable by owner\n    /// @param _newAdmin address of account to be added as administrator\n    function addAdmin(address _newAdmin) external onlyOwner stopInEmergency {\n        // only emit event if admin is not added yet\n        if (!admins[_newAdmin]) {\n            emit AddedAdmin(_newAdmin);\n        }\n        admins[_newAdmin] = true;\n    }\n\n    /// @notice remove administrator\n    /// @dev only callable by owner\n    /// @param _admin address of account to be removed as administrator\n    function removeAdmin(address _admin) external onlyOwner stopInEmergency {\n        // only emit event if admin is not removed yet\n        if (admins[_admin]) {\n            emit RemovedAdmin(_admin);\n        }\n        admins[_admin] = false;\n    }\n\n    /// @notice add shopowner\n    /// @dev only callable by admins\n    /// @param _newStoreOwner address of account to be added as shopowner\n    function addStoreOwner(address _newStoreOwner) external onlyAdmin stopInEmergency {\n        // only emit event if shopowner is not added yet\n        if (!storeOwners[_newStoreOwner]) {\n            emit AddedStoreOwner(_newStoreOwner, msg.sender);\n        }\n        storeOwners[_newStoreOwner] = true;\n    }\n\n    /// @notice remove shopowner\n    /// @dev only callable by admins\n    /// @param _storeOwner address of account to be removed as shopowner\n    function removeStoreOwner(address _storeOwner) external onlyAdmin stopInEmergency {\n        // only emit event if shopowner is not removed yet\n        if (storeOwners[_storeOwner]) {\n            emit RemovedStoreOwner(_storeOwner, msg.sender);\n        }\n        storeOwners[_storeOwner] = false;\n    }\n\n    /// @notice adds a new store\n    /// @dev only callable by store owners, throws on duplicate store ID per store owner\n    /// @param _name name of store\n    /// @param _description description of store\n    /// @return generated bytes32 ID of store\n    function addStore(string memory _name, string memory _description) public onlyStoreOwner stopInEmergency returns(bytes32 storeID) {\n        // storage pointer to store id list\n        bytes32[] storage storeIdList = storeIdLists[msg.sender];\n\n        // generate pseudorandom ID out of name, msg.sender and timestamp\n        storeID = keccak256(abi.encodePacked(_name, storeIdList.length, msg.sender, block.number));\n\n        // ensure that there is no active store with same ID\n        assert(!stores[msg.sender][storeID].active);\n\n        // push newly generated ID to store id list\n        // save new length -1 as index\n        uint256 index = storeIdList.push(storeID).sub(1);\n\n        // generate new store in stores mapping\n        stores[msg.sender][storeID] = Store({\n            storeID: storeID,\n            name: _name,\n            description: _description,\n            itemIdList: new bytes32[](0),\n            index: index,\n            active: true\n        });\n\n        emit AddedStore(msg.sender, storeID);\n    }\n\n    /// @notice removes an existing store\n    /// @dev only callable by store owners, requires store to be active\n    /// @param _storeID ID of store to be removed\n    /// @return true on success, false on failure\n    function removeStore(bytes32 _storeID) public onlyStoreOwner stopInEmergency returns(bool) {\n        // storage pointers to store and store id list\n        Store storage store = stores[msg.sender][_storeID];\n        bytes32[] storage storeIdList = storeIdLists[msg.sender];\n\n        // store has to be active in order to be removed\n        require(store.active, \"store currently not active\");\n\n        // copy last index of store id list to index of to be removed store and delete last item of array\n        uint256 index = store.index;\n        storeIdList[store.index] = storeIdList[storeIdList.length-1];\n        // set index of copied item\n        stores[msg.sender][storeIdList[index]].index = index;\n        storeIdList.length--;\n        // remove items from store\n        store.itemIdList.length = 0;\n        store.active = false;\n\n        emit RemovedStore(msg.sender, _storeID);\n        return true;\n    }\n\n    /// @notice add an item to a store\n    /// @dev only callable by store owners, requires parent store to be active, throws on duplicate item ID per store\n    /// @param _storeID ID of store\n    /// @param _name name of item\n    /// @param _description description of item\n    /// @param _price price of item\n    /// @param _image image of item (ipfs hash)\n    /// @param _stock available quantity for purchase\n    /// @return generated bytes32 ID of item\n    function addItem(\n        bytes32 _storeID,\n        string memory _name,\n        string memory _description,\n        uint256 _price,\n        string memory _image,\n        uint256 _stock\n    ) public onlyStoreOwner stopInEmergency returns(bytes32 itemID) {\n        // storage pointers to item id list\n        bytes32[] storage itemIdList = stores[msg.sender][_storeID].itemIdList;\n\n        // generate pseudorandom ID out of name, msg.sender and timestamp\n        itemID = keccak256(abi.encodePacked(_name, itemIdList.length, msg.sender, block.number));\n\n        // ensure that parent store is active\n        require(stores[msg.sender][_storeID].active, \"store is not active\");\n        // ensure that there is no active item with same ID\n        assert(!stores[msg.sender][_storeID].items[itemID].active);\n\n        // push newly generated ID to item id list\n        // save new length -1 as index\n        uint256 index = itemIdList.push(itemID).sub(1);\n\n        // generate new item in items mapping\n        stores[msg.sender][_storeID].items[itemID] = Item({\n            itemID: itemID,\n            name: _name,\n            description: _description,\n            image: _image,\n            price: _price,\n            stock: _stock,\n            index: index,\n            active: true\n        });\n\n        emit AddedItem(msg.sender, _storeID, itemID);\n    }\n\n    /// @notice removes an existing item\n    /// @dev only callable by store owners, requires item to be active\n    /// @param _storeID ID of store\n    /// @param _itemID ID of item to be removed\n    ///@return true on success, false on failure\n    function removeItem(bytes32 _storeID, bytes32 _itemID) public onlyStoreOwner stopInEmergency returns(bool) {\n        // storage pointers to item and item id list\n        Item storage item = stores[msg.sender][_storeID].items[_itemID];\n        bytes32[] storage itemIdList = stores[msg.sender][_storeID].itemIdList;\n\n        // ensure that parent store is active\n        require(stores[msg.sender][_storeID].active, \"store is not active\");\n        // item has to be active in order to be removed\n        require(item.active, \"item not active\");\n\n        // copy last index of item id list to index of to be removed item and delete last item of array\n        uint256 index = item.index;\n        itemIdList[index] = itemIdList[itemIdList.length-1];\n        // set index of copied item\n        stores[msg.sender][_storeID].items[itemIdList[index]].index = index;\n        itemIdList.length--;\n        item.active = false;\n\n        emit RemovedItem(msg.sender, _storeID, _itemID);\n        return true;\n    }\n\n    /// @notice purchases item\n    /// @param _storeOwner address of storeOwner+\n    /// @param _storeID ID of store\n    /// @param _itemID ID of item\n    /// @return true on successful purchase, false on failure\n    function purchase(address _storeOwner, bytes32 _storeID, bytes32 _itemID) public payable stopInEmergency returns (bool) {\n        // storage pointer to item\n        Item storage item = stores[_storeOwner][_storeID].items[_itemID];\n        // parent store has to be active\n        require(stores[_storeOwner][_storeID].active, \"store has to be active\");\n        // check if provided value matches price\n        require(msg.value == item.price, \"sent value does not match price\");\n        // check if item is available\n        require(item.stock > 0, \"item out of stock\");\n        item.stock -= 1;\n        // credit storeOwner\n        balances[_storeOwner] = balances[_storeOwner].add(msg.value);\n\n        emit Purchase(_storeOwner, _storeID, _itemID, msg.sender, msg.value);\n        return true;\n    }\n\n    /// @notice allows withdrawal of balance\n    /// @return true on success, false on failure\n    function withdraw() public returns (bool) {\n        uint256 balance = balances[msg.sender];\n        require(balance > 0, \"no balance\");\n        balances[msg.sender] = 0;\n        msg.sender.transfer(balance);\n        emit Withdrawal(msg.sender, balance);\n        return true;\n    }\n\n    /// @notice restocks quantity of an item\n    /// @param _storeID ID of store\n    /// @param _itemID ID of item\n    /// @param _amount amount to restock\n    /// @return true on success, false on failure\n    function restock(bytes32 _storeID, bytes32 _itemID, uint256 _amount) public onlyStoreOwner stopInEmergency returns(bool) {\n        // storage pointer to item\n        Item storage item = stores[msg.sender][_storeID].items[_itemID];\n        // ensure that parent store is active\n        require(stores[msg.sender][_storeID].active, \"store is not active\");\n        // ensure that item is still active\n        require(item.active, \"item is not active\");\n        item.stock = item.stock.add(_amount);\n        emit Restocking(msg.sender, _storeID, _itemID, _amount);\n        return true;\n    }\n\n    /// @notice changes item of an item\n    /// @param _storeID ID of store\n    /// @param _itemID ID of item\n    /// @param _price new price\n    /// @return true on success, false on failure\n    function changePrice(bytes32 _storeID, bytes32 _itemID, uint256 _price) public onlyStoreOwner stopInEmergency returns(bool) {\n        // storage pointer to item\n        Item storage item = stores[msg.sender][_storeID].items[_itemID];\n        // ensure that parent store is active\n        require(stores[msg.sender][_storeID].active, \"store is not active\");\n        // ensure that item is still active\n        require(item.active, \"item is not active\");\n        item.price = _price;\n        emit PriceChange(msg.sender, _storeID, _itemID, _price);\n        return true;\n    }\n\n    /// @notice lets owner set a featured store owner\n    /// @param _index index inside featuredStoreOwners array\n    /// @param _storeOwner address of store owner to be featured\n    function setFeaturedStoreOwner(uint256 _index, address _storeOwner) public onlyOwner stopInEmergency {\n        featuredStoreOwners[_index] = _storeOwner;\n    }\n\n    /// @notice flips the emergency switch, only callable by owner\n    function flipEmergencySwitch() public onlyOwner {\n        emergencySwitch = !emergencySwitch;\n    }\n\n    /// @notice return list of stores belonging to a store owner\n    /// @param _storeOwner address of store owner\n    /// @return bytes32 array, containing IDs of stores belonging to store owner\n    function getStoreIdList(address _storeOwner) public view returns(bytes32[] memory) {\n        return storeIdLists[_storeOwner];\n    }\n\n    /// @notice return store by store ID belonging to a store owner\n    /// @param _storeOwner address of store owner\n    /// @param _storeID bytes32 ID of store\n    /// @return name of store\n    /// @return description of store\n    /// @return bytes32 array of item IDs belongig to store\n    /// @return index of store in store id list\n    /// @return bool flag whether store is active\n    function getStore(address _storeOwner, bytes32 _storeID) public view returns(\n        string memory name,\n        string memory description,\n        bytes32[] memory itemIdList,\n        uint256 index,\n        bool active\n    ) {\n        Store memory store = stores[_storeOwner][_storeID];\n        name = store.name;\n        description = store.description;\n        itemIdList = store.itemIdList;\n        index = store.index;\n        active = store.active;\n    }\n\n    /// @notice return item list of store belonging to a store owner\n    /// @param _storeOwner address of store owner\n    /// @param _storeID bytes32 ID of store\n    /// @return bytes32 array, containing item IDs of a store belonging to store owner\n    function getItemIdList(address _storeOwner, bytes32 _storeID) public view returns(bytes32[] memory) {\n        return stores[_storeOwner][_storeID].itemIdList;\n    }\n\n    /// @notice return item of a store belonging to a store owner\n    /// @param _storeOwner address of store owner\n    /// @param _storeID bytes32 ID of store\n    /// @return name of item\n    /// @return description of item\n    /// @return ipfs hash of image\n    /// @return price of item\n    /// @return available quantity of item\n    /// @return index of item in item id list\n    /// @return bool flag whether item is active\n    function getItem(address _storeOwner, bytes32 _storeID, bytes32 _itemID) public view returns(\n        string memory name,\n        string memory description,\n        string memory image,\n        uint256 price,\n        uint256 stock,\n        uint256 index,\n        bool active\n    ) {\n        Item memory item = stores[_storeOwner][_storeID].items[_itemID];\n        name = item.name;\n        description = item.description;\n        image = item.image;\n        price = item.price;\n        stock = item.stock;\n        index = item.index;\n        active = item.active;\n    }\n\n}\n",
  "sourcePath": "/Users/gretzke/Documents/Projekte/InnoChain/misc/Consensys Course/Final Project/project/contracts/Marketplace.sol",
  "compiler": {
    "name": "solc",
    "version": "0.5.0+commit.1d4f565a.Emscripten.clang"
  },
  "schemaVersion": "3.0.1",
  "updatedAt": "2019-01-19T04:03:33.647Z",
  "devdoc": {
    "author": "Daniel Gretzke",
    "methods": {
      "addAdmin(address)": {
        "details": "only callable by owner",
        "params": {
          "_newAdmin": "address of account to be added as administrator"
        }
      },
      "addItem(bytes32,string,string,uint256,string,uint256)": {
        "details": "only callable by store owners, requires parent store to be active, throws on duplicate item ID per store",
        "params": {
          "_description": "description of item",
          "_image": "image of item (ipfs hash)",
          "_name": "name of item",
          "_price": "price of item",
          "_stock": "available quantity for purchase",
          "_storeID": "ID of store"
        },
        "return": "generated bytes32 ID of item"
      },
      "addStore(string,string)": {
        "details": "only callable by store owners, throws on duplicate store ID per store owner",
        "params": {
          "_description": "description of store",
          "_name": "name of store"
        },
        "return": "generated bytes32 ID of store"
      },
      "addStoreOwner(address)": {
        "details": "only callable by admins",
        "params": {
          "_newStoreOwner": "address of account to be added as shopowner"
        }
      },
      "changePrice(bytes32,bytes32,uint256)": {
        "params": {
          "_itemID": "ID of item",
          "_price": "new price",
          "_storeID": "ID of store"
        },
        "return": "true on success, false on failure"
      },
      "constructor": {
        "details": "constructor"
      },
      "getItem(address,bytes32,bytes32)": {
        "params": {
          "_storeID": "bytes32 ID of store",
          "_storeOwner": "address of store owner"
        },
        "return": "name of itemdescription of itemipfs hash of imageprice of itemavailable quantity of itemindex of item in item id listbool flag whether item is active"
      },
      "getItemIdList(address,bytes32)": {
        "params": {
          "_storeID": "bytes32 ID of store",
          "_storeOwner": "address of store owner"
        },
        "return": "bytes32 array, containing item IDs of a store belonging to store owner"
      },
      "getStore(address,bytes32)": {
        "params": {
          "_storeID": "bytes32 ID of store",
          "_storeOwner": "address of store owner"
        },
        "return": "name of storedescription of storebytes32 array of item IDs belongig to storeindex of store in store id listbool flag whether store is active"
      },
      "getStoreIdList(address)": {
        "params": {
          "_storeOwner": "address of store owner"
        },
        "return": "bytes32 array, containing IDs of stores belonging to store owner"
      },
      "purchase(address,bytes32,bytes32)": {
        "params": {
          "_itemID": "ID of item",
          "_storeID": "ID of store",
          "_storeOwner": "address of storeOwner+"
        },
        "return": "true on successful purchase, false on failure"
      },
      "removeAdmin(address)": {
        "details": "only callable by owner",
        "params": {
          "_admin": "address of account to be removed as administrator"
        }
      },
      "removeItem(bytes32,bytes32)": {
        "details": "only callable by store owners, requires item to be active",
        "params": {
          "_itemID": "ID of item to be removed",
          "_storeID": "ID of store"
        },
        "return": "true on success, false on failure"
      },
      "removeStore(bytes32)": {
        "details": "only callable by store owners, requires store to be active",
        "params": {
          "_storeID": "ID of store to be removed"
        },
        "return": "true on success, false on failure"
      },
      "removeStoreOwner(address)": {
        "details": "only callable by admins",
        "params": {
          "_storeOwner": "address of account to be removed as shopowner"
        }
      },
      "restock(bytes32,bytes32,uint256)": {
        "params": {
          "_amount": "amount to restock",
          "_itemID": "ID of item",
          "_storeID": "ID of store"
        },
        "return": "true on success, false on failure"
      },
      "setFeaturedStoreOwner(uint256,address)": {
        "params": {
          "_index": "index inside featuredStoreOwners array",
          "_storeOwner": "address of store owner to be featured"
        }
      },
      "withdraw()": {
        "return": "true on success, false on failure"
      }
    },
    "title": "Marketplace"
  },
  "userdoc": {
    "methods": {
      "addAdmin(address)": {
        "notice": "add administrator"
      },
      "addItem(bytes32,string,string,uint256,string,uint256)": {
        "notice": "add an item to a store"
      },
      "addStore(string,string)": {
        "notice": "adds a new store"
      },
      "addStoreOwner(address)": {
        "notice": "add shopowner"
      },
      "changePrice(bytes32,bytes32,uint256)": {
        "notice": "changes item of an item"
      },
      "flipEmergencySwitch()": {
        "notice": "flips the emergency switch, only callable by owner"
      },
      "getItem(address,bytes32,bytes32)": {
        "notice": "return item of a store belonging to a store owner"
      },
      "getItemIdList(address,bytes32)": {
        "notice": "return item list of store belonging to a store owner"
      },
      "getStore(address,bytes32)": {
        "notice": "return store by store ID belonging to a store owner"
      },
      "getStoreIdList(address)": {
        "notice": "return list of stores belonging to a store owner"
      },
      "purchase(address,bytes32,bytes32)": {
        "notice": "purchases item"
      },
      "removeAdmin(address)": {
        "notice": "remove administrator"
      },
      "removeItem(bytes32,bytes32)": {
        "notice": "removes an existing item"
      },
      "removeStore(bytes32)": {
        "notice": "removes an existing store"
      },
      "removeStoreOwner(address)": {
        "notice": "remove shopowner"
      },
      "restock(bytes32,bytes32,uint256)": {
        "notice": "restocks quantity of an item"
      },
      "setFeaturedStoreOwner(uint256,address)": {
        "notice": "lets owner set a featured store owner"
      },
      "withdraw()": {
        "notice": "allows withdrawal of balance"
      }
    }
  }
}