{
  "contractName": "Marketplace",
  "abi": [
    {
      "constant": true,
      "inputs": [
        {
          "name": "",
          "type": "address"
        }
      ],
      "name": "storeOwners",
      "outputs": [
        {
          "name": "",
          "type": "bool"
        }
      ],
      "payable": false,
      "stateMutability": "view",
      "type": "function"
    },
    {
      "constant": true,
      "inputs": [
        {
          "name": "",
          "type": "address"
        }
      ],
      "name": "balances",
      "outputs": [
        {
          "name": "",
          "type": "uint256"
        }
      ],
      "payable": false,
      "stateMutability": "view",
      "type": "function"
    },
    {
      "constant": true,
      "inputs": [
        {
          "name": "",
          "type": "address"
        }
      ],
      "name": "admins",
      "outputs": [
        {
          "name": "",
          "type": "bool"
        }
      ],
      "payable": false,
      "stateMutability": "view",
      "type": "function"
    },
    {
      "constant": true,
      "inputs": [],
      "name": "owner",
      "outputs": [
        {
          "name": "",
          "type": "address"
        }
      ],
      "payable": false,
      "stateMutability": "view",
      "type": "function"
    },
    {
      "constant": true,
      "inputs": [
        {
          "name": "",
          "type": "uint256"
        }
      ],
      "name": "featuredStoreOwners",
      "outputs": [
        {
          "name": "",
          "type": "address"
        }
      ],
      "payable": false,
      "stateMutability": "view",
      "type": "function"
    },
    {
      "inputs": [],
      "payable": false,
      "stateMutability": "nonpayable",
      "type": "constructor"
    },
    {
      "anonymous": false,
      "inputs": [
        {
          "indexed": true,
          "name": "admin",
          "type": "address"
        }
      ],
      "name": "AddedAdmin",
      "type": "event"
    },
    {
      "anonymous": false,
      "inputs": [
        {
          "indexed": true,
          "name": "admin",
          "type": "address"
        }
      ],
      "name": "RemovedAdmin",
      "type": "event"
    },
    {
      "anonymous": false,
      "inputs": [
        {
          "indexed": true,
          "name": "storeOwner",
          "type": "address"
        },
        {
          "indexed": true,
          "name": "admin",
          "type": "address"
        }
      ],
      "name": "AddedStoreOwner",
      "type": "event"
    },
    {
      "anonymous": false,
      "inputs": [
        {
          "indexed": true,
          "name": "storeOwner",
          "type": "address"
        },
        {
          "indexed": true,
          "name": "admin",
          "type": "address"
        }
      ],
      "name": "RemovedStoreOwner",
      "type": "event"
    },
    {
      "anonymous": false,
      "inputs": [
        {
          "indexed": true,
          "name": "storeOwner",
          "type": "address"
        },
        {
          "indexed": true,
          "name": "storeID",
          "type": "bytes32"
        }
      ],
      "name": "AddedStore",
      "type": "event"
    },
    {
      "anonymous": false,
      "inputs": [
        {
          "indexed": true,
          "name": "storeOwner",
          "type": "address"
        },
        {
          "indexed": true,
          "name": "storeID",
          "type": "bytes32"
        }
      ],
      "name": "RemovedStore",
      "type": "event"
    },
    {
      "anonymous": false,
      "inputs": [
        {
          "indexed": true,
          "name": "storeOwner",
          "type": "address"
        },
        {
          "indexed": true,
          "name": "storeID",
          "type": "bytes32"
        },
        {
          "indexed": true,
          "name": "itemID",
          "type": "bytes32"
        }
      ],
      "name": "AddedItem",
      "type": "event"
    },
    {
      "anonymous": false,
      "inputs": [
        {
          "indexed": true,
          "name": "storeOwner",
          "type": "address"
        },
        {
          "indexed": true,
          "name": "storeID",
          "type": "bytes32"
        },
        {
          "indexed": true,
          "name": "itemID",
          "type": "bytes32"
        }
      ],
      "name": "RemovedItem",
      "type": "event"
    },
    {
      "anonymous": false,
      "inputs": [
        {
          "indexed": true,
          "name": "storeOwner",
          "type": "address"
        },
        {
          "indexed": true,
          "name": "storeID",
          "type": "bytes32"
        },
        {
          "indexed": false,
          "name": "itemID",
          "type": "bytes32"
        },
        {
          "indexed": true,
          "name": "customer",
          "type": "address"
        },
        {
          "indexed": false,
          "name": "price",
          "type": "uint256"
        }
      ],
      "name": "Purchase",
      "type": "event"
    },
    {
      "anonymous": false,
      "inputs": [
        {
          "indexed": true,
          "name": "storeOwner",
          "type": "address"
        },
        {
          "indexed": false,
          "name": "amount",
          "type": "uint256"
        }
      ],
      "name": "Withdrawal",
      "type": "event"
    },
    {
      "anonymous": false,
      "inputs": [
        {
          "indexed": true,
          "name": "storeOwner",
          "type": "address"
        },
        {
          "indexed": true,
          "name": "storeID",
          "type": "bytes32"
        },
        {
          "indexed": true,
          "name": "itemID",
          "type": "bytes32"
        },
        {
          "indexed": false,
          "name": "amount",
          "type": "uint256"
        }
      ],
      "name": "Restocking",
      "type": "event"
    },
    {
      "anonymous": false,
      "inputs": [
        {
          "indexed": true,
          "name": "storeOwner",
          "type": "address"
        },
        {
          "indexed": true,
          "name": "storeID",
          "type": "bytes32"
        },
        {
          "indexed": true,
          "name": "itemID",
          "type": "bytes32"
        },
        {
          "indexed": false,
          "name": "newPrice",
          "type": "uint256"
        }
      ],
      "name": "PriceChange",
      "type": "event"
    },
    {
      "constant": false,
      "inputs": [
        {
          "name": "_newAdmin",
          "type": "address"
        }
      ],
      "name": "addAdmin",
      "outputs": [],
      "payable": false,
      "stateMutability": "nonpayable",
      "type": "function"
    },
    {
      "constant": false,
      "inputs": [
        {
          "name": "_admin",
          "type": "address"
        }
      ],
      "name": "removeAdmin",
      "outputs": [],
      "payable": false,
      "stateMutability": "nonpayable",
      "type": "function"
    },
    {
      "constant": false,
      "inputs": [
        {
          "name": "_newStoreOwner",
          "type": "address"
        }
      ],
      "name": "addStoreOwner",
      "outputs": [],
      "payable": false,
      "stateMutability": "nonpayable",
      "type": "function"
    },
    {
      "constant": false,
      "inputs": [
        {
          "name": "_storeOwner",
          "type": "address"
        }
      ],
      "name": "removeStoreOwner",
      "outputs": [],
      "payable": false,
      "stateMutability": "nonpayable",
      "type": "function"
    },
    {
      "constant": false,
      "inputs": [
        {
          "name": "_name",
          "type": "string"
        },
        {
          "name": "_description",
          "type": "string"
        }
      ],
      "name": "addStore",
      "outputs": [
        {
          "name": "storeID",
          "type": "bytes32"
        }
      ],
      "payable": false,
      "stateMutability": "nonpayable",
      "type": "function"
    },
    {
      "constant": false,
      "inputs": [
        {
          "name": "_storeID",
          "type": "bytes32"
        }
      ],
      "name": "removeStore",
      "outputs": [
        {
          "name": "",
          "type": "bool"
        }
      ],
      "payable": false,
      "stateMutability": "nonpayable",
      "type": "function"
    },
    {
      "constant": false,
      "inputs": [
        {
          "name": "_storeID",
          "type": "bytes32"
        },
        {
          "name": "_name",
          "type": "string"
        },
        {
          "name": "_description",
          "type": "string"
        },
        {
          "name": "_price",
          "type": "uint256"
        },
        {
          "name": "_image",
          "type": "string"
        },
        {
          "name": "_stock",
          "type": "uint256"
        }
      ],
      "name": "addItem",
      "outputs": [
        {
          "name": "itemID",
          "type": "bytes32"
        }
      ],
      "payable": false,
      "stateMutability": "nonpayable",
      "type": "function"
    },
    {
      "constant": false,
      "inputs": [
        {
          "name": "_storeID",
          "type": "bytes32"
        },
        {
          "name": "_itemID",
          "type": "bytes32"
        }
      ],
      "name": "removeItem",
      "outputs": [
        {
          "name": "",
          "type": "bool"
        }
      ],
      "payable": false,
      "stateMutability": "nonpayable",
      "type": "function"
    },
    {
      "constant": false,
      "inputs": [
        {
          "name": "_storeOwner",
          "type": "address"
        },
        {
          "name": "_storeID",
          "type": "bytes32"
        },
        {
          "name": "_itemID",
          "type": "bytes32"
        }
      ],
      "name": "purchase",
      "outputs": [
        {
          "name": "",
          "type": "bool"
        }
      ],
      "payable": true,
      "stateMutability": "payable",
      "type": "function"
    },
    {
      "constant": false,
      "inputs": [],
      "name": "withdraw",
      "outputs": [
        {
          "name": "",
          "type": "bool"
        }
      ],
      "payable": false,
      "stateMutability": "nonpayable",
      "type": "function"
    },
    {
      "constant": false,
      "inputs": [
        {
          "name": "_storeID",
          "type": "bytes32"
        },
        {
          "name": "_itemID",
          "type": "bytes32"
        },
        {
          "name": "_amount",
          "type": "uint256"
        }
      ],
      "name": "restock",
      "outputs": [
        {
          "name": "",
          "type": "bool"
        }
      ],
      "payable": false,
      "stateMutability": "nonpayable",
      "type": "function"
    },
    {
      "constant": false,
      "inputs": [
        {
          "name": "_storeID",
          "type": "bytes32"
        },
        {
          "name": "_itemID",
          "type": "bytes32"
        },
        {
          "name": "_price",
          "type": "uint256"
        }
      ],
      "name": "changePrice",
      "outputs": [
        {
          "name": "",
          "type": "bool"
        }
      ],
      "payable": false,
      "stateMutability": "nonpayable",
      "type": "function"
    },
    {
      "constant": true,
      "inputs": [
        {
          "name": "_storeOwner",
          "type": "address"
        }
      ],
      "name": "getStoreIdList",
      "outputs": [
        {
          "name": "",
          "type": "bytes32[]"
        }
      ],
      "payable": false,
      "stateMutability": "view",
      "type": "function"
    },
    {
      "constant": true,
      "inputs": [
        {
          "name": "_storeOwner",
          "type": "address"
        },
        {
          "name": "_storeID",
          "type": "bytes32"
        }
      ],
      "name": "getStore",
      "outputs": [
        {
          "name": "name",
          "type": "string"
        },
        {
          "name": "description",
          "type": "string"
        },
        {
          "name": "itemIdList",
          "type": "bytes32[]"
        },
        {
          "name": "index",
          "type": "uint256"
        },
        {
          "name": "active",
          "type": "bool"
        }
      ],
      "payable": false,
      "stateMutability": "view",
      "type": "function"
    },
    {
      "constant": true,
      "inputs": [
        {
          "name": "_storeOwner",
          "type": "address"
        },
        {
          "name": "_storeID",
          "type": "bytes32"
        }
      ],
      "name": "getItemIdList",
      "outputs": [
        {
          "name": "",
          "type": "bytes32[]"
        }
      ],
      "payable": false,
      "stateMutability": "view",
      "type": "function"
    },
    {
      "constant": true,
      "inputs": [
        {
          "name": "_storeOwner",
          "type": "address"
        },
        {
          "name": "_storeID",
          "type": "bytes32"
        },
        {
          "name": "_itemID",
          "type": "bytes32"
        }
      ],
      "name": "getItem",
      "outputs": [
        {
          "name": "name",
          "type": "string"
        },
        {
          "name": "description",
          "type": "string"
        },
        {
          "name": "image",
          "type": "string"
        },
        {
          "name": "price",
          "type": "uint256"
        },
        {
          "name": "stock",
          "type": "uint256"
        },
        {
          "name": "index",
          "type": "uint256"
        },
        {
          "name": "active",
          "type": "bool"
        }
      ],
      "payable": false,
      "stateMutability": "view",
      "type": "function"
    }
  ],
  "bytecode": "0x608060405234801561001057600080fd5b50336000806101000a81548173ffffffffffffffffffffffffffffffffffffffff021916908373ffffffffffffffffffffffffffffffffffffffff160217905550613981806100606000396000f30060806040526004361061011c576000357c0100000000000000000000000000000000000000000000000000000000900463ffffffff168062b7c60814610121578063057cc2a11461017857806312992854146101d35780631785f53c1461027957806327e235e3146102bc5780633ccfd60b14610313578063429b62e51461034257806360cefa281461039d5780636174fdd1146103e6578063704802751461042957806374a401a51461046c5780637703f0b41461063c5780638872db7b146106a65780638da5cb5b146107075780638e4135411461075e5780638ec711ff146107bf5780639adeb5f11461082c578063a1b6f0e71461086f578063bc933f69146109ff578063d9633f0414610a97578063ed48719c14610bca575b600080fd5b34801561012d57600080fd5b5061015e60048036038101908080356000191690602001909291908035600019169060200190929190505050610c95565b604051808215151515815260200191505060405180910390f35b34801561018457600080fd5b506101b9600480360381019080803573ffffffffffffffffffffffffffffffffffffffff169060200190929190505050611060565b604051808215151515815260200191505060405180910390f35b3480156101df57600080fd5b50610222600480360381019080803573ffffffffffffffffffffffffffffffffffffffff1690602001909291908035600019169060200190929190505050611080565b6040518080602001828103825283818151815260200191508051906020019060200280838360005b8381101561026557808201518184015260208101905061024a565b505050509050019250505060405180910390f35b34801561028557600080fd5b506102ba600480360381019080803573ffffffffffffffffffffffffffffffffffffffff169060200190929190505050611138565b005b3480156102c857600080fd5b506102fd600480360381019080803573ffffffffffffffffffffffffffffffffffffffff1690602001909291905050506112ed565b6040518082815260200191505060405180910390f35b34801561031f57600080fd5b50610328611305565b604051808215151515815260200191505060405180910390f35b34801561034e57600080fd5b50610383600480360381019080803573ffffffffffffffffffffffffffffffffffffffff1690602001909291905050506114a4565b604051808215151515815260200191505060405180910390f35b3480156103a957600080fd5b506103cc60048036038101908080356000191690602001909291905050506114c4565b604051808215151515815260200191505060405180910390f35b3480156103f257600080fd5b50610427600480360381019080803573ffffffffffffffffffffffffffffffffffffffff169060200190929190505050611786565b005b34801561043557600080fd5b5061046a600480360381019080803573ffffffffffffffffffffffffffffffffffffffff16906020019092919050505061194f565b005b34801561047857600080fd5b506104c9600480360381019080803573ffffffffffffffffffffffffffffffffffffffff16906020019092919080356000191690602001909291908035600019169060200190929190505050611b04565b604051808060200180602001806020018881526020018781526020018681526020018515151515815260200184810384528b818151815260200191508051906020019080838360005b8381101561052d578082015181840152602081019050610512565b50505050905090810190601f16801561055a5780820380516001836020036101000a031916815260200191505b5084810383528a818151815260200191508051906020019080838360005b83811015610593578082015181840152602081019050610578565b50505050905090810190601f1680156105c05780820380516001836020036101000a031916815260200191505b50848103825289818151815260200191508051906020019080838360005b838110156105f95780820151818401526020810190506105de565b50505050905090810190601f1680156106265780820380516001836020036101000a031916815260200191505b509a505050505050505050505060405180910390f35b61068c600480360381019080803573ffffffffffffffffffffffffffffffffffffffff16906020019092919080356000191690602001909291908035600019169060200190929190505050611e0a565b604051808215151515815260200191505060405180910390f35b3480156106b257600080fd5b506106ed6004803603810190808035600019169060200190929190803560001916906020019092919080359060200190929190505050612185565b604051808215151515815260200191505060405180910390f35b34801561071357600080fd5b5061071c61248f565b604051808273ffffffffffffffffffffffffffffffffffffffff1673ffffffffffffffffffffffffffffffffffffffff16815260200191505060405180910390f35b34801561076a57600080fd5b506107a560048036038101908080356000191690602001909291908035600019169060200190929190803590602001909291905050506124b4565b604051808215151515815260200191505060405180910390f35b3480156107cb57600080fd5b506107ea600480360381019080803590602001909291905050506127d4565b604051808273ffffffffffffffffffffffffffffffffffffffff1673ffffffffffffffffffffffffffffffffffffffff16815260200191505060405180910390f35b34801561083857600080fd5b5061086d600480360381019080803573ffffffffffffffffffffffffffffffffffffffff169060200190929190505050612809565b005b34801561087b57600080fd5b506108be600480360381019080803573ffffffffffffffffffffffffffffffffffffffff16906020019092919080356000191690602001909291905050506129d3565b6040518080602001806020018060200186815260200185151515158152602001848103845289818151815260200191508051906020019080838360005b838110156109165780820151818401526020810190506108fb565b50505050905090810190601f1680156109435780820380516001836020036101000a031916815260200191505b50848103835288818151815260200191508051906020019080838360005b8381101561097c578082015181840152602081019050610961565b50505050905090810190601f1680156109a95780820380516001836020036101000a031916815260200191505b50848103825287818151815260200191508051906020019060200280838360005b838110156109e55780820151818401526020810190506109ca565b505050509050019850505050505050505060405180910390f35b348015610a0b57600080fd5b50610a40600480360381019080803573ffffffffffffffffffffffffffffffffffffffff169060200190929190505050612c4e565b6040518080602001828103825283818151815260200191508051906020019060200280838360005b83811015610a83578082015181840152602081019050610a68565b505050509050019250505060405180910390f35b348015610aa357600080fd5b50610bac6004803603810190808035600019169060200190929190803590602001908201803590602001908080601f0160208091040260200160405190810160405280939291908181526020018383808284378201915050505050509192919290803590602001908201803590602001908080601f016020809104026020016040519081016040528093929190818152602001838380828437820191505050505050919291929080359060200190929190803590602001908201803590602001908080601f016020809104026020016040519081016040528093929190818152602001838380828437820191505050505050919291929080359060200190929190505050612ce9565b60405180826000191660001916815260200191505060405180910390f35b348015610bd657600080fd5b50610c77600480360381019080803590602001908201803590602001908080601f0160208091040260200160405190810160405280939291908181526020018383808284378201915050505050509192919290803590602001908201803590602001908080601f016020809104026020016040519081016040528093929190818152602001838380828437820191505050505050919291929050505061329b565b60405180826000191660001916815260200191505060405180910390f35b6000806000600260003373ffffffffffffffffffffffffffffffffffffffff1673ffffffffffffffffffffffffffffffffffffffff16815260200190815260200160002060009054906101000a900460ff161515610d5b576040517f08c379a00000000000000000000000000000000000000000000000000000000081526004018080602001828103825260198152602001807f63616c6c6572206973206e6f742073746f7265206f776e65720000000000000081525060200191505060405180910390fd5b600360003373ffffffffffffffffffffffffffffffffffffffff1673ffffffffffffffffffffffffffffffffffffffff16815260200190815260200160002060008660001916600019168152602001908152602001600020600301600085600019166000191681526020019081526020016000209150600360003373ffffffffffffffffffffffffffffffffffffffff1673ffffffffffffffffffffffffffffffffffffffff168152602001908152602001600020600086600019166000191681526020019081526020016000206004019050600360003373ffffffffffffffffffffffffffffffffffffffff1673ffffffffffffffffffffffffffffffffffffffff1681526020019081526020016000206000866000191660001916815260200190815260200160002060060160009054906101000a900460ff161515610f0b576040517f08c379a00000000000000000000000000000000000000000000000000000000081526004018080602001828103825260138152602001807f73746f7265206973206e6f74206163746976650000000000000000000000000081525060200191505060405180910390fd5b8160070160009054906101000a900460ff161515610f91576040517f08c379a000000000000000000000000000000000000000000000000000000000815260040180806020018281038252600f8152602001807f6974656d206e6f7420616374697665000000000000000000000000000000000081525060200191505060405180910390fd5b806001828054905003815481101515610fa657fe5b9060005260206000200154818360060154815481101515610fc357fe5b90600052602060002001816000191690555080805480919060019003610fe99190613759565b5060008260070160006101000a81548160ff021916908315150217905550836000191685600019163373ffffffffffffffffffffffffffffffffffffffff167fc4f39fc7cd8d9cecca72619a2f3112ebc8927e9f54197097204bd7d181f53d8560405160405180910390a460019250505092915050565b60026020528060005260406000206000915054906101000a900460ff1681565b6060600360008473ffffffffffffffffffffffffffffffffffffffff1673ffffffffffffffffffffffffffffffffffffffff1681526020019081526020016000206000836000191660001916815260200190815260200160002060040180548060200260200160405190810160405280929190818152602001828054801561112b57602002820191906000526020600020905b81546000191681526020019060010190808311611113575b5050505050905092915050565b3373ffffffffffffffffffffffffffffffffffffffff166000809054906101000a900473ffffffffffffffffffffffffffffffffffffffff1673ffffffffffffffffffffffffffffffffffffffff161415156111fc576040517f08c379a00000000000000000000000000000000000000000000000000000000081526004018080602001828103825260138152602001807f63616c6c6572206973206e6f74206f776e65720000000000000000000000000081525060200191505060405180910390fd5b600160008273ffffffffffffffffffffffffffffffffffffffff1673ffffffffffffffffffffffffffffffffffffffff16815260200190815260200160002060009054906101000a900460ff1615611292578073ffffffffffffffffffffffffffffffffffffffff167f3137a7fedbfedb7895dfa5a6812a4566dae9ded68d00aeec13c6ed1fa84a1c8060405160405180910390a25b6000600160008373ffffffffffffffffffffffffffffffffffffffff1673ffffffffffffffffffffffffffffffffffffffff16815260200190815260200160002060006101000a81548160ff02191690831515021790555050565b600f6020528060005260406000206000915090505481565b600080600f60003373ffffffffffffffffffffffffffffffffffffffff1673ffffffffffffffffffffffffffffffffffffffff1681526020019081526020016000205490506000811115156113c2576040517f08c379a000000000000000000000000000000000000000000000000000000000815260040180806020018281038252600a8152602001807f6e6f2062616c616e63650000000000000000000000000000000000000000000081525060200191505060405180910390fd5b6000600f60003373ffffffffffffffffffffffffffffffffffffffff1673ffffffffffffffffffffffffffffffffffffffff168152602001908152602001600020819055503373ffffffffffffffffffffffffffffffffffffffff166108fc829081150290604051600060405180830381858888f1935050505015801561144d573d6000803e3d6000fd5b503373ffffffffffffffffffffffffffffffffffffffff167f7fcf532c15f0a6db0bd6d0e038bea71d30d808c7d98cb3bf7268a95bf5081b65826040518082815260200191505060405180910390a2600191505090565b60016020528060005260406000206000915054906101000a900460ff1681565b6000806000600260003373ffffffffffffffffffffffffffffffffffffffff1673ffffffffffffffffffffffffffffffffffffffff16815260200190815260200160002060009054906101000a900460ff16151561158a576040517f08c379a00000000000000000000000000000000000000000000000000000000081526004018080602001828103825260198152602001807f63616c6c6572206973206e6f742073746f7265206f776e65720000000000000081525060200191505060405180910390fd5b600360003373ffffffffffffffffffffffffffffffffffffffff1673ffffffffffffffffffffffffffffffffffffffff168152602001908152602001600020600085600019166000191681526020019081526020016000209150600460003373ffffffffffffffffffffffffffffffffffffffff1673ffffffffffffffffffffffffffffffffffffffff16815260200190815260200160002090508160060160009054906101000a900460ff1615156116ab576040517f08c379a000000000000000000000000000000000000000000000000000000000815260040180806020018281038252601a8152602001807f73746f72652063757272656e746c79206e6f742061637469766500000000000081525060200191505060405180910390fd5b8060018280549050038154811015156116c057fe5b90600052602060002001548183600501548154811015156116dd57fe5b906000526020600020018160001916905550808054809190600190036117039190613759565b50600082600401816117159190613785565b5060008260060160006101000a81548160ff02191690831515021790555083600019163373ffffffffffffffffffffffffffffffffffffffff167f88145275798306f84e4ecc1acba885f3e25f4059c86ed5d046d17e233f942b0f60405160405180910390a3600192505050919050565b600160003373ffffffffffffffffffffffffffffffffffffffff1673ffffffffffffffffffffffffffffffffffffffff16815260200190815260200160002060009054906101000a900460ff161515611847576040517f08c379a00000000000000000000000000000000000000000000000000000000081526004018080602001828103825260138152602001807f63616c6c6572206973206e6f742061646d696e0000000000000000000000000081525060200191505060405180910390fd5b600260008273ffffffffffffffffffffffffffffffffffffffff1673ffffffffffffffffffffffffffffffffffffffff16815260200190815260200160002060009054906101000a900460ff16156118f4573373ffffffffffffffffffffffffffffffffffffffff168173ffffffffffffffffffffffffffffffffffffffff167f5bc85634de52ca3246bb3c9377a71e8a0ad6e1419e15c700003aef4a245e3b8160405160405180910390a35b6000600260008373ffffffffffffffffffffffffffffffffffffffff1673ffffffffffffffffffffffffffffffffffffffff16815260200190815260200160002060006101000a81548160ff02191690831515021790555050565b3373ffffffffffffffffffffffffffffffffffffffff166000809054906101000a900473ffffffffffffffffffffffffffffffffffffffff1673ffffffffffffffffffffffffffffffffffffffff16141515611a13576040517f08c379a00000000000000000000000000000000000000000000000000000000081526004018080602001828103825260138152602001807f63616c6c6572206973206e6f74206f776e65720000000000000000000000000081525060200191505060405180910390fd5b600160008273ffffffffffffffffffffffffffffffffffffffff1673ffffffffffffffffffffffffffffffffffffffff16815260200190815260200160002060009054906101000a900460ff161515611aaa578073ffffffffffffffffffffffffffffffffffffffff167f7849194239ab1d31b991b5436d81370256505cf25eaafbcccbc66acd1189691660405160405180910390a25b60018060008373ffffffffffffffffffffffffffffffffffffffff1673ffffffffffffffffffffffffffffffffffffffff16815260200190815260200160002060006101000a81548160ff02191690831515021790555050565b6060806060600080600080611b176137b1565b600360008c73ffffffffffffffffffffffffffffffffffffffff1673ffffffffffffffffffffffffffffffffffffffff16815260200190815260200160002060008b6000191660001916815260200190815260200160002060030160008a600019166000191681526020019081526020016000206101006040519081016040529081600082015460001916600019168152602001600182018054600181600116156101000203166002900480601f016020809104026020016040519081016040528092919081815260200182805460018160011615610100020316600290048015611c435780601f10611c1857610100808354040283529160200191611c43565b820191906000526020600020905b815481529060010190602001808311611c2657829003601f168201915b50505050508152602001600282018054600181600116156101000203166002900480601f016020809104026020016040519081016040528092919081815260200182805460018160011615610100020316600290048015611ce55780601f10611cba57610100808354040283529160200191611ce5565b820191906000526020600020905b815481529060010190602001808311611cc857829003601f168201915b50505050508152602001600382018054600181600116156101000203166002900480601f016020809104026020016040519081016040528092919081815260200182805460018160011615610100020316600290048015611d875780601f10611d5c57610100808354040283529160200191611d87565b820191906000526020600020905b815481529060010190602001808311611d6a57829003601f168201915b505050505081526020016004820154815260200160058201548152602001600682015481526020016007820160009054906101000a900460ff1615151515815250509050806020015197508060400151965080606001519550806080015194508060a0015193508060c0015192508060e001519150509397509397509397909450565b600080600360008673ffffffffffffffffffffffffffffffffffffffff1673ffffffffffffffffffffffffffffffffffffffff16815260200190815260200160002060008560001916600019168152602001908152602001600020600301600084600019166000191681526020019081526020016000209050600360008673ffffffffffffffffffffffffffffffffffffffff1673ffffffffffffffffffffffffffffffffffffffff1681526020019081526020016000206000856000191660001916815260200190815260200160002060060160009054906101000a900460ff161515611f60576040517f08c379a00000000000000000000000000000000000000000000000000000000081526004018080602001828103825260168152602001807f73746f72652068617320746f206265206163746976650000000000000000000081525060200191505060405180910390fd5b806004015434141515611fdb576040517f08c379a000000000000000000000000000000000000000000000000000000000815260040180806020018281038252601f8152602001807f73656e742076616c756520646f6573206e6f74206d617463682070726963650081525060200191505060405180910390fd5b60008160050154111515612057576040517f08c379a00000000000000000000000000000000000000000000000000000000081526004018080602001828103825260118152602001807f6974656d206f7574206f662073746f636b00000000000000000000000000000081525060200191505060405180910390fd5b600181600501600082825403925050819055506120bc34600f60008873ffffffffffffffffffffffffffffffffffffffff1673ffffffffffffffffffffffffffffffffffffffff1681526020019081526020016000205461372290919063ffffffff16565b600f60008773ffffffffffffffffffffffffffffffffffffffff1673ffffffffffffffffffffffffffffffffffffffff168152602001908152602001600020819055503373ffffffffffffffffffffffffffffffffffffffff1684600019168673ffffffffffffffffffffffffffffffffffffffff167f6e71c382d241be9272ad0fb169a8a38ae18392c287b404ff178645302f6c8f5286346040518083600019166000191681526020018281526020019250505060405180910390a460019150509392505050565b600080600260003373ffffffffffffffffffffffffffffffffffffffff1673ffffffffffffffffffffffffffffffffffffffff16815260200190815260200160002060009054906101000a900460ff161515612249576040517f08c379a00000000000000000000000000000000000000000000000000000000081526004018080602001828103825260198152602001807f63616c6c6572206973206e6f742073746f7265206f776e65720000000000000081525060200191505060405180910390fd5b600360003373ffffffffffffffffffffffffffffffffffffffff1673ffffffffffffffffffffffffffffffffffffffff16815260200190815260200160002060008660001916600019168152602001908152602001600020600301600085600019166000191681526020019081526020016000209050600360003373ffffffffffffffffffffffffffffffffffffffff1673ffffffffffffffffffffffffffffffffffffffff1681526020019081526020016000206000866000191660001916815260200190815260200160002060060160009054906101000a900460ff16151561239c576040517f08c379a00000000000000000000000000000000000000000000000000000000081526004018080602001828103825260138152602001807f73746f7265206973206e6f74206163746976650000000000000000000000000081525060200191505060405180910390fd5b8060070160009054906101000a900460ff161515612422576040517f08c379a00000000000000000000000000000000000000000000000000000000081526004018080602001828103825260128152602001807f6974656d206973206e6f7420616374697665000000000000000000000000000081525060200191505060405180910390fd5b828160040181905550836000191685600019163373ffffffffffffffffffffffffffffffffffffffff167f77938cd30d1e5e3187c3fb36f9cfcb72aea2e742838e67bce3e1dc6c6880e125866040518082815260200191505060405180910390a460019150509392505050565b6000809054906101000a900473ffffffffffffffffffffffffffffffffffffffff1681565b600080600260003373ffffffffffffffffffffffffffffffffffffffff1673ffffffffffffffffffffffffffffffffffffffff16815260200190815260200160002060009054906101000a900460ff161515612578576040517f08c379a00000000000000000000000000000000000000000000000000000000081526004018080602001828103825260198152602001807f63616c6c6572206973206e6f742073746f7265206f776e65720000000000000081525060200191505060405180910390fd5b600360003373ffffffffffffffffffffffffffffffffffffffff1673ffffffffffffffffffffffffffffffffffffffff16815260200190815260200160002060008660001916600019168152602001908152602001600020600301600085600019166000191681526020019081526020016000209050600360003373ffffffffffffffffffffffffffffffffffffffff1673ffffffffffffffffffffffffffffffffffffffff1681526020019081526020016000206000866000191660001916815260200190815260200160002060060160009054906101000a900460ff1615156126cb576040517f08c379a00000000000000000000000000000000000000000000000000000000081526004018080602001828103825260138152602001807f73746f7265206973206e6f74206163746976650000000000000000000000000081525060200191505060405180910390fd5b8060070160009054906101000a900460ff161515612751576040517f08c379a00000000000000000000000000000000000000000000000000000000081526004018080602001828103825260128152602001807f6974656d206973206e6f7420616374697665000000000000000000000000000081525060200191505060405180910390fd5b61276883826005015461372290919063ffffffff16565b8160050181905550836000191685600019163373ffffffffffffffffffffffffffffffffffffffff167ff0415bbbcc48ef36411daa288c01dc7df21a031ebecae8002b465ba0c943e8ff866040518082815260200191505060405180910390a460019150509392505050565b600581600a811015156127e357fe5b016000915054906101000a900473ffffffffffffffffffffffffffffffffffffffff1681565b600160003373ffffffffffffffffffffffffffffffffffffffff1673ffffffffffffffffffffffffffffffffffffffff16815260200190815260200160002060009054906101000a900460ff1615156128ca576040517f08c379a00000000000000000000000000000000000000000000000000000000081526004018080602001828103825260138152602001807f63616c6c6572206973206e6f742061646d696e0000000000000000000000000081525060200191505060405180910390fd5b600260008273ffffffffffffffffffffffffffffffffffffffff1673ffffffffffffffffffffffffffffffffffffffff16815260200190815260200160002060009054906101000a900460ff161515612978573373ffffffffffffffffffffffffffffffffffffffff168173ffffffffffffffffffffffffffffffffffffffff167f53c2b9d1c3537277c4c9c8d4562935a17348d2b86a2a048580b4d5933683432060405160405180910390a35b6001600260008373ffffffffffffffffffffffffffffffffffffffff1673ffffffffffffffffffffffffffffffffffffffff16815260200190815260200160002060006101000a81548160ff02191690831515021790555050565b60608060606000806129e36137fc565b600360008973ffffffffffffffffffffffffffffffffffffffff1673ffffffffffffffffffffffffffffffffffffffff1681526020019081526020016000206000886000191660001916815260200190815260200160002060c06040519081016040529081600082015460001916600019168152602001600182018054600181600116156101000203166002900480601f016020809104026020016040519081016040528092919081815260200182805460018160011615610100020316600290048015612af25780601f10612ac757610100808354040283529160200191612af2565b820191906000526020600020905b815481529060010190602001808311612ad557829003601f168201915b50505050508152602001600282018054600181600116156101000203166002900480601f016020809104026020016040519081016040528092919081815260200182805460018160011615610100020316600290048015612b945780601f10612b6957610100808354040283529160200191612b94565b820191906000526020600020905b815481529060010190602001808311612b7757829003601f168201915b5050505050815260200160048201805480602002602001604051908101604052809291908181526020018280548015612bf057602002820191906000526020600020905b81546000191681526020019060010190808311612bd8575b50505050508152602001600582015481526020016006820160009054906101000a900460ff1615151515815250509050806020015195508060400151945080606001519350806080015192508060a001519150509295509295909350565b6060600460008373ffffffffffffffffffffffffffffffffffffffff1673ffffffffffffffffffffffffffffffffffffffff168152602001908152602001600020805480602002602001604051908101604052809291908181526020018280548015612cdd57602002820191906000526020600020905b81546000191681526020019060010190808311612cc5575b50505050509050919050565b6000806000600260003373ffffffffffffffffffffffffffffffffffffffff1673ffffffffffffffffffffffffffffffffffffffff16815260200190815260200160002060009054906101000a900460ff161515612daf576040517f08c379a00000000000000000000000000000000000000000000000000000000081526004018080602001828103825260198152602001807f63616c6c6572206973206e6f742073746f7265206f776e65720000000000000081525060200191505060405180910390fd5b600360003373ffffffffffffffffffffffffffffffffffffffff1673ffffffffffffffffffffffffffffffffffffffff16815260200190815260200160002060008a60001916600019168152602001908152602001600020600401915087828054905033436040516020018085805190602001908083835b602083101515612e4c5780518252602082019150602081019050602083039250612e27565b6001836020036101000a0380198251168184511680821785525050505050509050018481526020018373ffffffffffffffffffffffffffffffffffffffff1673ffffffffffffffffffffffffffffffffffffffff166c010000000000000000000000000281526014018281526020019450505050506040516020818303038152906040526040518082805190602001908083835b602083101515612f055780518252602082019150602081019050602083039250612ee0565b6001836020036101000a03801982511681845116808217855250505050505090500191505060405180910390209250600360003373ffffffffffffffffffffffffffffffffffffffff1673ffffffffffffffffffffffffffffffffffffffff16815260200190815260200160002060008a6000191660001916815260200190815260200160002060060160009054906101000a900460ff161515613011576040517f08c379a00000000000000000000000000000000000000000000000000000000081526004018080602001828103825260138152602001807f73746f7265206973206e6f74206163746976650000000000000000000000000081525060200191505060405180910390fd5b600360003373ffffffffffffffffffffffffffffffffffffffff1673ffffffffffffffffffffffffffffffffffffffff16815260200190815260200160002060008a600019166000191681526020019081526020016000206003016000846000191660001916815260200190815260200160002060070160009054906101000a900460ff1615151561309f57fe5b6130e2600183859080600181540180825580915050906001820390600052602060002001600090919290919091509060001916905561374090919063ffffffff16565b9050610100604051908101604052808460001916815260200189815260200188815260200186815260200187815260200185815260200182815260200160011515815250600360003373ffffffffffffffffffffffffffffffffffffffff1673ffffffffffffffffffffffffffffffffffffffff16815260200190815260200160002060008b60001916600019168152602001908152602001600020600301600085600019166000191681526020019081526020016000206000820151816000019060001916905560208201518160010190805190602001906131c6929190613838565b5060408201518160020190805190602001906131e3929190613838565b506060820151816003019080519060200190613200929190613838565b506080820151816004015560a0820151816005015560c0820151816006015560e08201518160070160006101000a81548160ff021916908315150217905550905050826000191689600019163373ffffffffffffffffffffffffffffffffffffffff167febc9cb7e7c7b6ab10237201d210c96ce34b5a4ad1609ef6e8cdbab509cfb043b60405160405180910390a450509695505050505050565b6000806000600260003373ffffffffffffffffffffffffffffffffffffffff1673ffffffffffffffffffffffffffffffffffffffff16815260200190815260200160002060009054906101000a900460ff161515613361576040517f08c379a00000000000000000000000000000000000000000000000000000000081526004018080602001828103825260198152602001807f63616c6c6572206973206e6f742073746f7265206f776e65720000000000000081525060200191505060405180910390fd5b600460003373ffffffffffffffffffffffffffffffffffffffff1673ffffffffffffffffffffffffffffffffffffffff168152602001908152602001600020915084828054905033436040516020018085805190602001908083835b6020831015156133e257805182526020820191506020810190506020830392506133bd565b6001836020036101000a0380198251168184511680821785525050505050509050018481526020018373ffffffffffffffffffffffffffffffffffffffff1673ffffffffffffffffffffffffffffffffffffffff166c010000000000000000000000000281526014018281526020019450505050506040516020818303038152906040526040518082805190602001908083835b60208310151561349b5780518252602082019150602081019050602083039250613476565b6001836020036101000a03801982511681845116808217855250505050505090500191505060405180910390209250600360003373ffffffffffffffffffffffffffffffffffffffff1673ffffffffffffffffffffffffffffffffffffffff1681526020019081526020016000206000846000191660001916815260200190815260200160002060060160009054906101000a900460ff1615151561353c57fe5b61357f600183859080600181540180825580915050906001820390600052602060002001600090919290919091509060001916905561374090919063ffffffff16565b905060c0604051908101604052808460001916815260200186815260200185815260200160006040519080825280602002602001820160405280156135d35781602001602082028038833980820191505090505b50815260200182815260200160011515815250600360003373ffffffffffffffffffffffffffffffffffffffff1673ffffffffffffffffffffffffffffffffffffffff1681526020019081526020016000206000856000191660001916815260200190815260200160002060008201518160000190600019169055602082015181600101908051906020019061366a929190613838565b506040820151816002019080519060200190613687929190613838565b5060608201518160040190805190602001906136a49291906138b8565b506080820151816005015560a08201518160060160006101000a81548160ff02191690831515021790555090505082600019163373ffffffffffffffffffffffffffffffffffffffff167f9b71bc718f51cc1d6fecc7361e4701ed4ae6ed0c14dd388549293c4d5e3d497560405160405180910390a3505092915050565b600080828401905083811015151561373657fe5b8091505092915050565b600082821115151561374e57fe5b818303905092915050565b8154818355818111156137805781836000526020600020918201910161377f919061390b565b5b505050565b8154818355818111156137ac578183600052602060002091820191016137ab919061390b565b5b505050565b61010060405190810160405280600080191681526020016060815260200160608152602001606081526020016000815260200160008152602001600081526020016000151581525090565b60c06040519081016040528060008019168152602001606081526020016060815260200160608152602001600081526020016000151581525090565b828054600181600116156101000203166002900490600052602060002090601f016020900481019282601f1061387957805160ff19168380011785556138a7565b828001600101855582156138a7579182015b828111156138a657825182559160200191906001019061388b565b5b5090506138b49190613930565b5090565b8280548282559060005260206000209081019282156138fa579160200282015b828111156138f95782518290600019169055916020019190600101906138d8565b5b509050613907919061390b565b5090565b61392d91905b80821115613929576000816000905550600101613911565b5090565b90565b61395291905b8082111561394e576000816000905550600101613936565b5090565b905600a165627a7a72305820e8a032cab83088b1878614f995b1cbed5d22ff75954c665021dc61c6491930c50029",
  "source": "pragma solidity 0.4.25;\n// pragma experimental ABIEncoderV2;\n\n// removed ethpm package, because of solc issues\n// import \"zeppelin/contracts/math/SafeMath.sol\";\n\n/// @title SafeMath\n/// @dev Math operations with safety checks that throw on error\nlibrary SafeMath {\n\n    function mul(uint256 a, uint256 b) internal pure returns (uint256) {\n        uint256 c = a * b;\n        assert(a == 0 || c / a == b);\n        return c;\n    }\n\n    function div(uint256 a, uint256 b) internal pure returns (uint256) {\n        // assert(b > 0); // Solidity automatically throws when dividing by 0\n        uint256 c = a / b;\n        // assert(a == b * c + a % b); // There is no case in which this doesn't hold\n        return c;\n    }\n\n    function sub(uint256 a, uint256 b) internal pure returns (uint256) {\n        assert(b <= a);\n        return a - b;\n    }\n\n    function add(uint256 a, uint256 b) internal pure returns (uint256) {\n        uint256 c = a + b;\n        assert(c >= a);\n        return c;\n    }\n\n}\n\n/// @title Marketplace\n/// @author Daniel Gretzke\ncontract Marketplace {\n\n    using SafeMath for uint256;\n    // owner, admin, storeOwner variables\n    address public owner;\n    mapping(address => bool) public admins;\n    mapping(address => bool) public storeOwners;\n\n    // events\n    event AddedAdmin(address indexed admin);\n    event RemovedAdmin(address indexed admin);\n    event AddedStoreOwner(address indexed storeOwner, address indexed admin);\n    event RemovedStoreOwner(address indexed storeOwner, address indexed admin);\n\n    event AddedStore(address indexed storeOwner, bytes32 indexed storeID);\n    event RemovedStore(address indexed storeOwner, bytes32 indexed storeID);\n    event AddedItem(address indexed storeOwner, bytes32 indexed storeID, bytes32 indexed itemID);\n    event RemovedItem(address indexed storeOwner, bytes32 indexed storeID, bytes32 indexed itemID);\n\n    event Purchase(address indexed storeOwner, bytes32 indexed storeID, bytes32 itemID, address indexed customer, uint256 price);\n    event Withdrawal(address indexed storeOwner, uint256 amount);\n    event Restocking(address indexed storeOwner, bytes32 indexed storeID, bytes32 indexed itemID, uint256 amount);\n    event PriceChange(address indexed storeOwner, bytes32 indexed storeID, bytes32 indexed itemID, uint256 newPrice);\n\n    // store and item structs\n    struct Store {\n        bytes32 storeID;\n        string name;\n        string description;\n        // items are stored inside a mapping, mapped from a bytes32 key to an item\n        mapping(bytes32 => Item) items;\n        // items can be retreived via an unordered array of bytes32 keys\n        bytes32[] itemIdList;\n        // index inside storeIdList array for cheap deletion of stores\n        uint256 index;\n        bool active;\n    }\n\n    struct Item {\n        bytes32 itemID;\n        string name;\n        string description;\n        // ipfs hash\n        string image;\n        uint256 price;\n        uint256 stock;\n        // index inside itemIdList array for cheap deletion of items\n        uint256 index;\n        bool active;\n    }\n\n    // stores are stored inside a mapping, mapped from a bytes32 key to a store\n    // each storeOwner has its own mapping to store stores in\n    mapping(address => mapping(bytes32 => Store)) private stores;\n    // stores can be retreived via an unordered array of bytes32 keys\n    mapping(address => bytes32[]) private storeIdLists;\n    // fixed size array to store featured storeOwners inside the marketplace\n    address[10] public featuredStoreOwners;\n\n    // balances of storeOwners\n    mapping(address => uint256) public balances;\n\n    /// @dev modifier, verifies that caller is owner\n    modifier onlyOwner() {\n        require(owner == msg.sender, \"caller is not owner\");\n        _;\n    }\n\n    /// @dev modifier, verifies that caller is admin\n    modifier onlyAdmin() {\n        require(admins[msg.sender], \"caller is not admin\");\n        _;\n    }\n\n    /// @dev modifier, verifies that caller is store owner\n    modifier onlyStoreOwner() {\n        require(storeOwners[msg.sender], \"caller is not store owner\");\n        _;\n    }\n\n    /// @dev constructor\n    constructor() public {\n        owner = msg.sender;\n    }\n\n    /// @notice add administrator\n    /// @dev only callable by owner\n    /// @param _newAdmin address of account to be added as administrator\n    function addAdmin(address _newAdmin) external onlyOwner {\n        // only emit event if admin is not added yet\n        if (!admins[_newAdmin]) {\n            emit AddedAdmin(_newAdmin);\n        }\n        admins[_newAdmin] = true;\n    }\n\n    /// @notice remove administrator\n    /// @dev only callable by owner\n    /// @param _admin address of account to be removed as administrator\n    function removeAdmin(address _admin) external onlyOwner {\n        // only emit event if admin is not removed yet\n        if (admins[_admin]) {\n            emit RemovedAdmin(_admin);\n        }\n        admins[_admin] = false;\n    }\n\n    /// @notice add shopowner\n    /// @dev only callable by admins\n    /// @param _newStoreOwner address of account to be added as shopowner\n    function addStoreOwner(address _newStoreOwner) external onlyAdmin {\n        // only emit event if shopowner is not added yet\n        if (!storeOwners[_newStoreOwner]) {\n            emit AddedStoreOwner(_newStoreOwner, msg.sender);\n        }\n        storeOwners[_newStoreOwner] = true;\n    }\n\n    /// @notice remove shopowner\n    /// @dev only callable by admins\n    /// @param _storeOwner address of account to be removed as shopowner\n    function removeStoreOwner(address _storeOwner) external onlyAdmin {\n        // only emit event if shopowner is not removed yet\n        if (storeOwners[_storeOwner]) {\n            emit RemovedStoreOwner(_storeOwner, msg.sender);\n        }\n        storeOwners[_storeOwner] = false;\n    }\n\n    /// @notice adds a new store\n    /// @dev only callable by store owners, throws on duplicate store ID per store owner\n    /// @param _name name of store\n    /// @param _description description of store\n    /// @return generated bytes32 ID of store\n    function addStore(string _name, string _description) public onlyStoreOwner returns(bytes32 storeID) {\n        // storage pointer to store id list\n        bytes32[] storage storeIdList = storeIdLists[msg.sender];\n\n        // generate pseudorandom ID out of name, msg.sender and timestamp\n        storeID = keccak256(abi.encodePacked(_name, storeIdList.length, msg.sender, block.number));\n\n        // ensure that there is no active store with same ID\n        assert(!stores[msg.sender][storeID].active);\n\n        // push newly generated ID to store id list\n        // save new length -1 as index\n        uint256 index = storeIdList.push(storeID).sub(1);\n\n        // generate new store in stores mapping\n        stores[msg.sender][storeID] = Store({\n            storeID: storeID,\n            name: _name,\n            description: _description,\n            itemIdList: new bytes32[](0),\n            index: index,\n            active: true\n        });\n\n        emit AddedStore(msg.sender, storeID);\n    }\n\n    /// @notice removes an existing store\n    /// @dev only callable by store owners, requires store to be active\n    /// @param _storeID ID of store to be removed\n    /// @return true on success, false on failure\n    function removeStore(bytes32 _storeID) public onlyStoreOwner returns(bool) {\n        // storage pointers to store and store id list\n        Store storage store = stores[msg.sender][_storeID];\n        bytes32[] storage storeIdList = storeIdLists[msg.sender];\n\n        // store has to be active in order to be removed\n        require(store.active, \"store currently not active\");\n\n        // copy last index of store id list to index of to be removed store and delete last item of array\n        storeIdList[store.index] = storeIdList[storeIdList.length-1];\n        storeIdList.length--;\n        // remove items from store\n        store.itemIdList.length = 0;\n        store.active = false;\n\n        emit RemovedStore(msg.sender, _storeID);\n        return true;\n    }\n\n    /// @notice add an item to a store\n    /// @dev only callable by store owners, requires parent store to be active, throws on duplicate item ID per store\n    /// @param _storeID ID of store\n    /// @param _name name of item\n    /// @param _description description of item\n    /// @param _price price of item\n    /// @param _image image of item (ipfs hash)\n    /// @param _stock available quantity for purchase\n    /// @return generated bytes32 ID of item\n    function addItem(\n        bytes32 _storeID,\n        string _name,\n        string _description,\n        uint256 _price,\n        string _image,\n        uint256 _stock\n    ) public onlyStoreOwner returns(bytes32 itemID) {\n        // storage pointers to item id list\n        bytes32[] storage itemIdList = stores[msg.sender][_storeID].itemIdList;\n\n        // generate pseudorandom ID out of name, msg.sender and timestamp\n        itemID = keccak256(abi.encodePacked(_name, itemIdList.length, msg.sender, block.number));\n\n        // ensure that parent store is active\n        require(stores[msg.sender][_storeID].active, \"store is not active\");\n        // ensure that there is no active item with same ID\n        assert(!stores[msg.sender][_storeID].items[itemID].active);\n\n        // push newly generated ID to item id list\n        // save new length -1 as index\n        uint256 index = itemIdList.push(itemID).sub(1);\n\n        // generate new item in items mapping\n        stores[msg.sender][_storeID].items[itemID] = Item({\n            itemID: itemID,\n            name: _name,\n            description: _description,\n            image: _image,\n            price: _price,\n            stock: _stock,\n            index: index,\n            active: true\n        });\n\n        emit AddedItem(msg.sender, _storeID, itemID);\n    }\n\n    /// @notice removes an existing item\n    /// @dev only callable by store owners, requires item to be active\n    /// @param _storeID ID of store\n    /// @param _itemID ID of item to be removed\n    ///@return true on success, false on failure\n    function removeItem(bytes32 _storeID, bytes32 _itemID) public onlyStoreOwner returns(bool) {\n        // storage pointers to item and item id list\n        Item storage item = stores[msg.sender][_storeID].items[_itemID];\n        bytes32[] storage itemIdList = stores[msg.sender][_storeID].itemIdList;\n\n        // ensure that parent store is active\n        require(stores[msg.sender][_storeID].active, \"store is not active\");\n        // item has to be active in order to be removed\n        require(item.active, \"item not active\");\n\n        // copy last index of item id list to index of to be removed item and delete last item of array\n        itemIdList[item.index] = itemIdList[itemIdList.length-1];\n        itemIdList.length--;\n        item.active = false;\n\n        emit RemovedItem(msg.sender, _storeID, _itemID);\n        return true;\n    }\n\n    /// @notice purchases item\n    /// @param _storeOwner address of storeOwner+\n    /// @param _storeID ID of store\n    /// @param _itemID ID of item\n    /// @return true on successful purchase, false on failure\n    function purchase(address _storeOwner, bytes32 _storeID, bytes32 _itemID) public payable returns (bool) {\n        // storage pointer to item\n        Item storage item = stores[_storeOwner][_storeID].items[_itemID];\n        // parent store has to be active\n        require(stores[_storeOwner][_storeID].active, \"store has to be active\");\n        // check if provided value matches price\n        require(msg.value == item.price, \"sent value does not match price\");\n        // check if item is available\n        require(item.stock > 0, \"item out of stock\");\n        item.stock -= 1;\n        // credit storeOwner\n        balances[_storeOwner] = balances[_storeOwner].add(msg.value);\n\n        emit Purchase(_storeOwner, _storeID, _itemID, msg.sender, msg.value);\n        return true;\n    }\n\n    /// @notice allows withdrawal of balance\n    /// @return true on success, false on failure\n    function withdraw() public returns (bool) {\n        uint256 balance = balances[msg.sender];\n        require(balance > 0, \"no balance\");\n        balances[msg.sender] = 0;\n        msg.sender.transfer(balance);\n        emit Withdrawal(msg.sender, balance);\n        return true;\n    }\n\n    /// @notice restocks quantity of an item\n    /// @param _storeID ID of store\n    /// @param _itemID ID of item\n    /// @param _amount amount to restock\n    /// @return true on success, false on failure\n    function restock(bytes32 _storeID, bytes32 _itemID, uint256 _amount) public onlyStoreOwner returns(bool) {\n        // storage pointer to item\n        Item storage item = stores[msg.sender][_storeID].items[_itemID];\n        // ensure that parent store is active\n        require(stores[msg.sender][_storeID].active, \"store is not active\");\n        // ensure that item is still active\n        require(item.active, \"item is not active\");\n        item.stock = item.stock.add(_amount);\n        emit Restocking(msg.sender, _storeID, _itemID, _amount);\n        return true;\n    }\n\n    /// @notice changes item of an item\n    /// @param _storeID ID of store\n    /// @param _itemID ID of item\n    /// @param _price new price\n    /// @return true on success, false on failure\n    function changePrice(bytes32 _storeID, bytes32 _itemID, uint256 _price) public onlyStoreOwner returns(bool) {\n        // storage pointer to item\n        Item storage item = stores[msg.sender][_storeID].items[_itemID];\n        // ensure that parent store is active\n        require(stores[msg.sender][_storeID].active, \"store is not active\");\n        // ensure that item is still active\n        require(item.active, \"item is not active\");\n        item.price = _price;\n        emit PriceChange(msg.sender, _storeID, _itemID, _price);\n        return true;\n    }\n\n    /// @notice return list of stores belonging to a store owner\n    /// @param _storeOwner address of store owner\n    /// @return bytes32 array, containing IDs of stores belonging to store owner\n    function getStoreIdList(address _storeOwner) public view returns(bytes32[]) {\n        return storeIdLists[_storeOwner];\n    }\n\n    /// @notice return store by store ID belonging to a store owner\n    /// @param _storeOwner address of store owner\n    /// @param _storeID bytes32 ID of store\n    /// @return name of store\n    /// @return description of store\n    /// @return bytes32 array of item IDs belongig to store\n    /// @return index of store in store id list\n    /// @return bool flag whether store is active\n    function getStore(address _storeOwner, bytes32 _storeID) public view returns(\n        string name,\n        string description,\n        bytes32[] itemIdList,\n        uint256 index,\n        bool active\n    ) {\n        Store memory store = stores[_storeOwner][_storeID];\n        name = store.name;\n        description = store.description;\n        itemIdList = store.itemIdList;\n        index = store.index;\n        active = store.active;\n    }\n\n    /// @notice return item list of store belonging to a store owner\n    /// @param _storeOwner address of store owner\n    /// @param _storeID bytes32 ID of store\n    /// @return bytes32 array, containing item IDs of a store belonging to store owner\n    function getItemIdList(address _storeOwner, bytes32 _storeID) public view returns(bytes32[]) {\n        return stores[_storeOwner][_storeID].itemIdList;\n    }\n\n    /// @notice return item of a store belonging to a store owner\n    /// @param _storeOwner address of store owner\n    /// @param _storeID bytes32 ID of store\n    /// @return name of item\n    /// @return description of item\n    /// @return ipfs hash of image\n    /// @return price of item\n    /// @return available quantity of item\n    /// @return index of item in item id list\n    /// @return bool flag whether item is active\n    function getItem(address _storeOwner, bytes32 _storeID, bytes32 _itemID) public view returns(\n        string name,\n        string description,\n        string image,\n        uint256 price,\n        uint256 stock,\n        uint256 index,\n        bool active\n    ) {\n        Item memory item = stores[_storeOwner][_storeID].items[_itemID];\n        name = item.name;\n        description = item.description;\n        image = item.image;\n        price = item.price;\n        stock = item.stock;\n        index = item.index;\n        active = item.active;\n    }\n\n}\n",
  "sourcePath": "/Users/gretzke/Documents/Projekte/InnoChain/misc/Consensys Course/Final Project/project/contracts/Marketplace.sol",
  "compiler": {
    "name": "solc",
    "version": "0.4.25+commit.59dbf8f1.Emscripten.clang"
  },
  "schemaVersion": "2.0.2",
  "updatedAt": "2019-01-02T23:35:36.447Z"
}